{"abi":[{"type":"constructor","inputs":[{"name":"_poolManager","type":"address","internalType":"contract IPoolManager"}],"stateMutability":"nonpayable"},{"type":"function","name":"getFeeGrowthGlobals","inputs":[{"name":"poolId","type":"bytes32","internalType":"PoolId"}],"outputs":[{"name":"feeGrowthGlobal0","type":"uint256","internalType":"uint256"},{"name":"feeGrowthGlobal1","type":"uint256","internalType":"uint256"}],"stateMutability":"view"},{"type":"function","name":"getFeeGrowthInside","inputs":[{"name":"poolId","type":"bytes32","internalType":"PoolId"},{"name":"tickLower","type":"int24","internalType":"int24"},{"name":"tickUpper","type":"int24","internalType":"int24"}],"outputs":[{"name":"feeGrowthInside0X128","type":"uint256","internalType":"uint256"},{"name":"feeGrowthInside1X128","type":"uint256","internalType":"uint256"}],"stateMutability":"view"},{"type":"function","name":"getLiquidity","inputs":[{"name":"poolId","type":"bytes32","internalType":"PoolId"}],"outputs":[{"name":"liquidity","type":"uint128","internalType":"uint128"}],"stateMutability":"view"},{"type":"function","name":"getPositionInfo","inputs":[{"name":"poolId","type":"bytes32","internalType":"PoolId"},{"name":"positionId","type":"bytes32","internalType":"bytes32"}],"outputs":[{"name":"liquidity","type":"uint128","internalType":"uint128"},{"name":"feeGrowthInside0LastX128","type":"uint256","internalType":"uint256"},{"name":"feeGrowthInside1LastX128","type":"uint256","internalType":"uint256"}],"stateMutability":"view"},{"type":"function","name":"getPositionInfo","inputs":[{"name":"poolId","type":"bytes32","internalType":"PoolId"},{"name":"owner","type":"address","internalType":"address"},{"name":"tickLower","type":"int24","internalType":"int24"},{"name":"tickUpper","type":"int24","internalType":"int24"},{"name":"salt","type":"bytes32","internalType":"bytes32"}],"outputs":[{"name":"liquidity","type":"uint128","internalType":"uint128"},{"name":"feeGrowthInside0LastX128","type":"uint256","internalType":"uint256"},{"name":"feeGrowthInside1LastX128","type":"uint256","internalType":"uint256"}],"stateMutability":"view"},{"type":"function","name":"getPositionLiquidity","inputs":[{"name":"poolId","type":"bytes32","internalType":"PoolId"},{"name":"positionId","type":"bytes32","internalType":"bytes32"}],"outputs":[{"name":"liquidity","type":"uint128","internalType":"uint128"}],"stateMutability":"view"},{"type":"function","name":"getSlot0","inputs":[{"name":"poolId","type":"bytes32","internalType":"PoolId"}],"outputs":[{"name":"sqrtPriceX96","type":"uint160","internalType":"uint160"},{"name":"tick","type":"int24","internalType":"int24"},{"name":"protocolFee","type":"uint24","internalType":"uint24"},{"name":"lpFee","type":"uint24","internalType":"uint24"}],"stateMutability":"view"},{"type":"function","name":"getTickBitmap","inputs":[{"name":"poolId","type":"bytes32","internalType":"PoolId"},{"name":"tick","type":"int16","internalType":"int16"}],"outputs":[{"name":"tickBitmap","type":"uint256","internalType":"uint256"}],"stateMutability":"view"},{"type":"function","name":"getTickFeeGrowthOutside","inputs":[{"name":"poolId","type":"bytes32","internalType":"PoolId"},{"name":"tick","type":"int24","internalType":"int24"}],"outputs":[{"name":"feeGrowthOutside0X128","type":"uint256","internalType":"uint256"},{"name":"feeGrowthOutside1X128","type":"uint256","internalType":"uint256"}],"stateMutability":"view"},{"type":"function","name":"getTickInfo","inputs":[{"name":"poolId","type":"bytes32","internalType":"PoolId"},{"name":"tick","type":"int24","internalType":"int24"}],"outputs":[{"name":"liquidityGross","type":"uint128","internalType":"uint128"},{"name":"liquidityNet","type":"int128","internalType":"int128"},{"name":"feeGrowthOutside0X128","type":"uint256","internalType":"uint256"},{"name":"feeGrowthOutside1X128","type":"uint256","internalType":"uint256"}],"stateMutability":"view"},{"type":"function","name":"getTickLiquidity","inputs":[{"name":"poolId","type":"bytes32","internalType":"PoolId"},{"name":"tick","type":"int24","internalType":"int24"}],"outputs":[{"name":"liquidityGross","type":"uint128","internalType":"uint128"},{"name":"liquidityNet","type":"int128","internalType":"int128"}],"stateMutability":"view"},{"type":"function","name":"poolManager","inputs":[],"outputs":[{"name":"","type":"address","internalType":"contract IPoolManager"}],"stateMutability":"view"}],"bytecode":{"object":"0x60a0604052348015600e575f80fd5b50604051610f6f380380610f6f833981016040819052602b91603b565b6001600160a01b03166080526066565b5f60208284031215604a575f80fd5b81516001600160a01b0381168114605f575f80fd5b9392505050565b608051610ea46100cb5f395f8181610239015281816102bf015281816102fe0152818161034301528181610389015281816103cb0152818161040e0152818161044e01528181610492015281816104c90152818161051201526105470152610ea45ff3fe608060405234801561000f575f80fd5b50600436106100b1575f3560e01c8063c815641c1161006e578063c815641c146101a1578063caedab54146101ec578063dacf1d2f14610221578063dc4c90d314610234578063f0928f2914610273578063fa6793d51461029e575f80fd5b80631c7ccb4c146100b557806353e9c1fb146100db5780637c40f1fe146101035780638a2bb9e61461014357806397fd7b42146101565780639ec538c81461018e575b5f80fd5b6100c86100c3366004610c1a565b6102b1565b6040519081526020015b60405180910390f35b6100ee6100e9366004610c64565b6102ef565b604080519283526020830191909152016100d2565b610116610111366004610c9d565b610332565b604080516001600160801b039095168552600f9390930b60208501529183015260608201526080016100d2565b6100ee610151366004610c9d565b61037a565b610169610164366004610cc7565b6103bb565b604080516001600160801b0390941684526020840192909252908201526060016100d2565b6100ee61019c366004610ce7565b6103ff565b6101b46101af366004610ce7565b61043d565b604080516001600160a01b03909516855260029390930b602085015262ffffff918216928401929092521660608201526080016100d2565b6101ff6101fa366004610c9d565b610483565b604080516001600160801b039093168352600f9190910b6020830152016100d2565b61016961022f366004610cfe565b6104b9565b61025b7f000000000000000000000000000000000000000000000000000000000000000081565b6040516001600160a01b0390911681526020016100d2565b610286610281366004610cc7565b610504565b6040516001600160801b0390911681526020016100d2565b6102866102ac366004610ce7565b610539565b5f6102e66001600160a01b037f000000000000000000000000000000000000000000000000000000000000000016848461056d565b90505b92915050565b5f806103266001600160a01b037f00000000000000000000000000000000000000000000000000000000000000001686868661062c565b91509150935093915050565b5f80808061036a6001600160a01b037f00000000000000000000000000000000000000000000000000000000000000001687876106c8565b9299919850965090945092505050565b5f806103b06001600160a01b037f000000000000000000000000000000000000000000000000000000000000000016858561077e565b915091509250929050565b5f80806103f26001600160a01b037f0000000000000000000000000000000000000000000000000000000000000000168686610829565b9250925092509250925092565b5f806104346001600160a01b037f000000000000000000000000000000000000000000000000000000000000000016846108cc565b91509150915091565b5f8080806104746001600160a01b037f0000000000000000000000000000000000000000000000000000000000000000168661091f565b93509350935093509193509193565b5f806103b06001600160a01b037f00000000000000000000000000000000000000000000000000000000000000001685856109d1565b5f80806104f36001600160a01b037f0000000000000000000000000000000000000000000000000000000000000000168989898989610a66565b925092509250955095509592505050565b5f6102e66001600160a01b037f0000000000000000000000000000000000000000000000000000000000000000168484610abd565b5f6102e96001600160a01b037f00000000000000000000000000000000000000000000000000000000000000001683610b3c565b5f8061057884610b55565b90505f610586600583610d5c565b60408051600187900b60208201529081018290529091505f9060600160408051808303601f19018152908290528051602090910120631e2eaeaf60e01b82526004820181905291506001600160a01b03881690631e2eaeaf90602401602060405180830381865afa1580156105fd573d5f803e3d5ffd5b505050506040513d601f19601f820116820180604052508101906106219190610d7b565b979650505050505050565b5f805f8061063a88886108cc565b915091505f8061064b8a8a8a61077e565b915091505f8061065c8c8c8b61077e565b915091505f61066b8d8d61091f565b50509150508a60020b8160020b121561068d57828503985081840397506106b8565b8960020b8160020b126106a957848303985083820397506106b8565b82858803039850818487030397505b5050505050505094509492505050565b5f805f805f6106d78787610b91565b604051631afeb18d60e11b815260048101829052600360248201529091505f906001600160a01b038a16906335fd631a906044015f60405180830381865afa158015610725573d5f803e3d5ffd5b505050506040513d5f823e601f3d908101601f1916820160405261074c9190810190610da6565b602081015160408201516060909201516001600160801b0382169c60809290921d9b5091995090975095505050505050565b5f805f61078b8585610b91565b90505f6001600160a01b0387166335fd631a6107a8846001610d5c565b60405160e083901b6001600160e01b03191681526004810191909152600260248201526044015b5f60405180830381865afa1580156107e9573d5f803e3d5ffd5b505050506040513d5f823e601f3d908101601f191682016040526108109190810190610da6565b6020810151604090910151909890975095505050505050565b5f805f806108378686610be5565b604051631afeb18d60e11b815260048101829052600360248201529091505f906001600160a01b038916906335fd631a906044015f60405180830381865afa158015610885573d5f803e3d5ffd5b505050506040513d5f823e601f3d908101601f191682016040526108ac9190810190610da6565b60208101516040820151606090920151909a919950975095505050505050565b5f805f6108d884610b55565b90505f6108e6600183610d5c565b604051631afeb18d60e11b815260048101829052600260248201529091505f906001600160a01b038816906335fd631a906044016107cf565b5f805f805f61092d86610b55565b604051631e2eaeaf60e01b8152600481018290529091505f906001600160a01b03891690631e2eaeaf90602401602060405180830381865afa158015610975573d5f803e3d5ffd5b505050506040513d601f19601f820116820180604052508101906109999190610d7b565b90506001600160a01b03811695508060a01c60020b945062ffffff8160b81c16935062ffffff8160d01c169250505092959194509250565b5f805f6109de8585610b91565b604051631e2eaeaf60e01b8152600481018290529091505f906001600160a01b03881690631e2eaeaf90602401602060405180830381865afa158015610a26573d5f803e3d5ffd5b505050506040513d601f19601f82011682018060405250810190610a4a9190610d7b565b6001600160801b0381169860809190911d975095505050505050565b60408051602681018390526006810184905260038101859052858152603a600c8201205f928201839052602082018390529082905281908190610aaa8a8a83610829565b919c909b50909950975050505050505050565b5f80610ac98484610be5565b604051631e2eaeaf60e01b8152600481018290529091506001600160a01b03861690631e2eaeaf90602401602060405180830381865afa158015610b0f573d5f803e3d5ffd5b505050506040513d601f19601f82011682018060405250810190610b339190610d7b565b95945050505050565b5f80610b4783610b55565b90505f610ac9600383610d5c565b6040515f90610b74908390600690602001918252602082015260400190565b604051602081830303815290604052805190602001209050919050565b5f80610b9c84610b55565b90505f610baa600483610d5c565b60408051600287900b60208201529081018290529091506060015b604051602081830303815290604052805190602001209250505092915050565b5f80610bf084610b55565b90505f610bfe600683610d5c565b6040805160208101879052908101829052909150606001610bc5565b5f8060408385031215610c2b575f80fd5b823591506020830135600181900b8114610c43575f80fd5b809150509250929050565b8035600281900b8114610c5f575f80fd5b919050565b5f805f60608486031215610c76575f80fd5b83359250610c8660208501610c4e565b9150610c9460408501610c4e565b90509250925092565b5f8060408385031215610cae575f80fd5b82359150610cbe60208401610c4e565b90509250929050565b5f8060408385031215610cd8575f80fd5b50508035926020909101359150565b5f60208284031215610cf7575f80fd5b5035919050565b5f805f805f60a08688031215610d12575f80fd5b8535945060208601356001600160a01b0381168114610d2f575f80fd5b9350610d3d60408701610c4e565b9250610d4b60608701610c4e565b949793965091946080013592915050565b808201808211156102e957634e487b7160e01b5f52601160045260245ffd5b5f60208284031215610d8b575f80fd5b5051919050565b634e487b7160e01b5f52604160045260245ffd5b5f60208284031215610db6575f80fd5b815167ffffffffffffffff811115610dcc575f80fd5b8201601f81018413610ddc575f80fd5b805167ffffffffffffffff811115610df657610df6610d92565b8060051b604051601f19603f830116810181811067ffffffffffffffff82111715610e2357610e23610d92565b604052918252602081840181019290810187841115610e40575f80fd5b6020850194505b83851015610e6357845180825260209586019590935001610e47565b50969550505050505056fea2646970667358221220e09455145ab7c45eaa0b01e4d75f7d84a4a5ad8df2077a0e184eabaa138dc98f64736f6c634300081a0033","linkReferences":{}},"methodIdentifiers":{"getFeeGrowthGlobals(bytes32)":"9ec538c8","getFeeGrowthInside(bytes32,int24,int24)":"53e9c1fb","getLiquidity(bytes32)":"fa6793d5","getPositionInfo(bytes32,address,int24,int24,bytes32)":"dacf1d2f","getPositionInfo(bytes32,bytes32)":"97fd7b42","getPositionLiquidity(bytes32,bytes32)":"f0928f29","getSlot0(bytes32)":"c815641c","getTickBitmap(bytes32,int16)":"1c7ccb4c","getTickFeeGrowthOutside(bytes32,int24)":"8a2bb9e6","getTickInfo(bytes32,int24)":"7c40f1fe","getTickLiquidity(bytes32,int24)":"caedab54","poolManager()":"dc4c90d3"},"id":119}