{"abi":[{"type":"function","name":"afterAddLiquidity","inputs":[{"name":"","type":"address","internalType":"address"},{"name":"","type":"tuple","internalType":"struct PoolKey","components":[{"name":"currency0","type":"address","internalType":"Currency"},{"name":"currency1","type":"address","internalType":"Currency"},{"name":"fee","type":"uint24","internalType":"uint24"},{"name":"tickSpacing","type":"int24","internalType":"int24"},{"name":"hooks","type":"address","internalType":"contract IHooks"}]},{"name":"","type":"tuple","internalType":"struct IPoolManager.ModifyLiquidityParams","components":[{"name":"tickLower","type":"int24","internalType":"int24"},{"name":"tickUpper","type":"int24","internalType":"int24"},{"name":"liquidityDelta","type":"int256","internalType":"int256"},{"name":"salt","type":"bytes32","internalType":"bytes32"}]},{"name":"","type":"int256","internalType":"BalanceDelta"},{"name":"","type":"int256","internalType":"BalanceDelta"},{"name":"","type":"bytes","internalType":"bytes"}],"outputs":[{"name":"","type":"bytes4","internalType":"bytes4"},{"name":"","type":"int256","internalType":"BalanceDelta"}],"stateMutability":"nonpayable"},{"type":"function","name":"afterDonate","inputs":[{"name":"","type":"address","internalType":"address"},{"name":"","type":"tuple","internalType":"struct PoolKey","components":[{"name":"currency0","type":"address","internalType":"Currency"},{"name":"currency1","type":"address","internalType":"Currency"},{"name":"fee","type":"uint24","internalType":"uint24"},{"name":"tickSpacing","type":"int24","internalType":"int24"},{"name":"hooks","type":"address","internalType":"contract IHooks"}]},{"name":"","type":"uint256","internalType":"uint256"},{"name":"","type":"uint256","internalType":"uint256"},{"name":"","type":"bytes","internalType":"bytes"}],"outputs":[{"name":"","type":"bytes4","internalType":"bytes4"}],"stateMutability":"nonpayable"},{"type":"function","name":"afterInitialize","inputs":[{"name":"","type":"address","internalType":"address"},{"name":"","type":"tuple","internalType":"struct PoolKey","components":[{"name":"currency0","type":"address","internalType":"Currency"},{"name":"currency1","type":"address","internalType":"Currency"},{"name":"fee","type":"uint24","internalType":"uint24"},{"name":"tickSpacing","type":"int24","internalType":"int24"},{"name":"hooks","type":"address","internalType":"contract IHooks"}]},{"name":"","type":"uint160","internalType":"uint160"},{"name":"","type":"int24","internalType":"int24"},{"name":"","type":"bytes","internalType":"bytes"}],"outputs":[{"name":"","type":"bytes4","internalType":"bytes4"}],"stateMutability":"nonpayable"},{"type":"function","name":"afterRemoveLiquidity","inputs":[{"name":"","type":"address","internalType":"address"},{"name":"","type":"tuple","internalType":"struct PoolKey","components":[{"name":"currency0","type":"address","internalType":"Currency"},{"name":"currency1","type":"address","internalType":"Currency"},{"name":"fee","type":"uint24","internalType":"uint24"},{"name":"tickSpacing","type":"int24","internalType":"int24"},{"name":"hooks","type":"address","internalType":"contract IHooks"}]},{"name":"","type":"tuple","internalType":"struct IPoolManager.ModifyLiquidityParams","components":[{"name":"tickLower","type":"int24","internalType":"int24"},{"name":"tickUpper","type":"int24","internalType":"int24"},{"name":"liquidityDelta","type":"int256","internalType":"int256"},{"name":"salt","type":"bytes32","internalType":"bytes32"}]},{"name":"","type":"int256","internalType":"BalanceDelta"},{"name":"","type":"int256","internalType":"BalanceDelta"},{"name":"","type":"bytes","internalType":"bytes"}],"outputs":[{"name":"","type":"bytes4","internalType":"bytes4"},{"name":"","type":"int256","internalType":"BalanceDelta"}],"stateMutability":"nonpayable"},{"type":"function","name":"afterSwap","inputs":[{"name":"","type":"address","internalType":"address"},{"name":"","type":"tuple","internalType":"struct PoolKey","components":[{"name":"currency0","type":"address","internalType":"Currency"},{"name":"currency1","type":"address","internalType":"Currency"},{"name":"fee","type":"uint24","internalType":"uint24"},{"name":"tickSpacing","type":"int24","internalType":"int24"},{"name":"hooks","type":"address","internalType":"contract IHooks"}]},{"name":"","type":"tuple","internalType":"struct IPoolManager.SwapParams","components":[{"name":"zeroForOne","type":"bool","internalType":"bool"},{"name":"amountSpecified","type":"int256","internalType":"int256"},{"name":"sqrtPriceLimitX96","type":"uint160","internalType":"uint160"}]},{"name":"","type":"int256","internalType":"BalanceDelta"},{"name":"","type":"bytes","internalType":"bytes"}],"outputs":[{"name":"","type":"bytes4","internalType":"bytes4"},{"name":"","type":"int128","internalType":"int128"}],"stateMutability":"nonpayable"},{"type":"function","name":"beforeAddLiquidity","inputs":[{"name":"","type":"address","internalType":"address"},{"name":"","type":"tuple","internalType":"struct PoolKey","components":[{"name":"currency0","type":"address","internalType":"Currency"},{"name":"currency1","type":"address","internalType":"Currency"},{"name":"fee","type":"uint24","internalType":"uint24"},{"name":"tickSpacing","type":"int24","internalType":"int24"},{"name":"hooks","type":"address","internalType":"contract IHooks"}]},{"name":"","type":"tuple","internalType":"struct IPoolManager.ModifyLiquidityParams","components":[{"name":"tickLower","type":"int24","internalType":"int24"},{"name":"tickUpper","type":"int24","internalType":"int24"},{"name":"liquidityDelta","type":"int256","internalType":"int256"},{"name":"salt","type":"bytes32","internalType":"bytes32"}]},{"name":"","type":"bytes","internalType":"bytes"}],"outputs":[{"name":"","type":"bytes4","internalType":"bytes4"}],"stateMutability":"nonpayable"},{"type":"function","name":"beforeDonate","inputs":[{"name":"","type":"address","internalType":"address"},{"name":"","type":"tuple","internalType":"struct PoolKey","components":[{"name":"currency0","type":"address","internalType":"Currency"},{"name":"currency1","type":"address","internalType":"Currency"},{"name":"fee","type":"uint24","internalType":"uint24"},{"name":"tickSpacing","type":"int24","internalType":"int24"},{"name":"hooks","type":"address","internalType":"contract IHooks"}]},{"name":"","type":"uint256","internalType":"uint256"},{"name":"","type":"uint256","internalType":"uint256"},{"name":"","type":"bytes","internalType":"bytes"}],"outputs":[{"name":"","type":"bytes4","internalType":"bytes4"}],"stateMutability":"nonpayable"},{"type":"function","name":"beforeInitialize","inputs":[{"name":"","type":"address","internalType":"address"},{"name":"","type":"tuple","internalType":"struct PoolKey","components":[{"name":"currency0","type":"address","internalType":"Currency"},{"name":"currency1","type":"address","internalType":"Currency"},{"name":"fee","type":"uint24","internalType":"uint24"},{"name":"tickSpacing","type":"int24","internalType":"int24"},{"name":"hooks","type":"address","internalType":"contract IHooks"}]},{"name":"","type":"uint160","internalType":"uint160"},{"name":"","type":"bytes","internalType":"bytes"}],"outputs":[{"name":"","type":"bytes4","internalType":"bytes4"}],"stateMutability":"nonpayable"},{"type":"function","name":"beforeRemoveLiquidity","inputs":[{"name":"","type":"address","internalType":"address"},{"name":"","type":"tuple","internalType":"struct PoolKey","components":[{"name":"currency0","type":"address","internalType":"Currency"},{"name":"currency1","type":"address","internalType":"Currency"},{"name":"fee","type":"uint24","internalType":"uint24"},{"name":"tickSpacing","type":"int24","internalType":"int24"},{"name":"hooks","type":"address","internalType":"contract IHooks"}]},{"name":"","type":"tuple","internalType":"struct IPoolManager.ModifyLiquidityParams","components":[{"name":"tickLower","type":"int24","internalType":"int24"},{"name":"tickUpper","type":"int24","internalType":"int24"},{"name":"liquidityDelta","type":"int256","internalType":"int256"},{"name":"salt","type":"bytes32","internalType":"bytes32"}]},{"name":"","type":"bytes","internalType":"bytes"}],"outputs":[{"name":"","type":"bytes4","internalType":"bytes4"}],"stateMutability":"nonpayable"},{"type":"function","name":"beforeSwap","inputs":[{"name":"","type":"address","internalType":"address"},{"name":"","type":"tuple","internalType":"struct PoolKey","components":[{"name":"currency0","type":"address","internalType":"Currency"},{"name":"currency1","type":"address","internalType":"Currency"},{"name":"fee","type":"uint24","internalType":"uint24"},{"name":"tickSpacing","type":"int24","internalType":"int24"},{"name":"hooks","type":"address","internalType":"contract IHooks"}]},{"name":"","type":"tuple","internalType":"struct IPoolManager.SwapParams","components":[{"name":"zeroForOne","type":"bool","internalType":"bool"},{"name":"amountSpecified","type":"int256","internalType":"int256"},{"name":"sqrtPriceLimitX96","type":"uint160","internalType":"uint160"}]},{"name":"","type":"bytes","internalType":"bytes"}],"outputs":[{"name":"","type":"bytes4","internalType":"bytes4"},{"name":"","type":"int256","internalType":"BeforeSwapDelta"},{"name":"","type":"uint24","internalType":"uint24"}],"stateMutability":"nonpayable"},{"type":"error","name":"HookNotImplemented","inputs":[]}],"bytecode":{"object":"0x6080604052348015600e575f80fd5b506105b88061001c5f395ff3fe608060405234801561000f575f80fd5b506004361061009b575f3560e01c80639f063efc116100635780639f063efc1461011c578063a910f80f1461014f578063b47b2fb11461015d578063b6a8b0fa1461018e578063e1b4af691461018e575f80fd5b806321d0ee701461009f578063259982e51461009f5780633440d820146100d0578063575e24b4146100de5780636c2bbe7e1461011c575b5f80fd5b6100b26100ad36600461026f565b61019c565b6040516001600160e01b031990911681526020015b60405180910390f35b6100b26100ad3660046102e6565b6100f16100ec366004610350565b6101b6565b604080516001600160e01b03199094168452602084019290925262ffffff16908201526060016100c7565b61012f61012a3660046103aa565b6101d2565b604080516001600160e01b031990931683526020830191909152016100c7565b6100b26100ad366004610435565b61016b61012a3660046104c5565b604080516001600160e01b03199093168352600f9190910b6020830152016100c7565b6100b26100ad366004610528565b5f604051630a85dc2960e01b815260040160405180910390fd5b5f805f604051630a85dc2960e01b815260040160405180910390fd5b5f80604051630a85dc2960e01b815260040160405180910390fd5b6001600160a01b0381168114610201575f80fd5b50565b5f60a08284031215610214575f80fd5b50919050565b5f60808284031215610214575f80fd5b5f8083601f84011261023a575f80fd5b50813567ffffffffffffffff811115610251575f80fd5b602083019150836020828501011115610268575f80fd5b9250929050565b5f805f805f6101608688031215610284575f80fd5b853561028f816101ed565b945061029e8760208801610204565b93506102ad8760c0880161021a565b925061014086013567ffffffffffffffff8111156102c9575f80fd5b6102d58882890161022a565b969995985093965092949392505050565b5f805f805f61010086880312156102fb575f80fd5b8535610306816101ed565b94506103158760208801610204565b935060c0860135610325816101ed565b925060e086013567ffffffffffffffff8111156102c9575f80fd5b5f60608284031215610214575f80fd5b5f805f805f6101408688031215610365575f80fd5b8535610370816101ed565b945061037f8760208801610204565b935061038e8760c08801610340565b925061012086013567ffffffffffffffff8111156102c9575f80fd5b5f805f805f805f6101a0888a0312156103c1575f80fd5b87356103cc816101ed565b96506103db8960208a01610204565b95506103ea8960c08a0161021a565b94506101408801359350610160880135925061018088013567ffffffffffffffff811115610416575f80fd5b6104228a828b0161022a565b989b979a50959850939692959293505050565b5f805f805f80610120878903121561044b575f80fd5b8635610456816101ed565b95506104658860208901610204565b945060c0870135610475816101ed565b935060e0870135600281900b811461048b575f80fd5b925061010087013567ffffffffffffffff8111156104a7575f80fd5b6104b389828a0161022a565b979a9699509497509295939492505050565b5f805f805f8061016087890312156104db575f80fd5b86356104e6816101ed565b95506104f58860208901610204565b94506105048860c08901610340565b9350610120870135925061014087013567ffffffffffffffff8111156104a7575f80fd5b5f805f805f80610120878903121561053e575f80fd5b8635610549816101ed565b95506105588860208901610204565b945060c0870135935060e0870135925061010087013567ffffffffffffffff8111156104a7575f80fdfea2646970667358221220f38b800de3cd2329799868ba2cca857331a872b727188b7df7ca83769dee02fc64736f6c634300081a0033","linkReferences":{}},"methodIdentifiers":{"afterAddLiquidity(address,(address,address,uint24,int24,address),(int24,int24,int256,bytes32),int256,int256,bytes)":"9f063efc","afterDonate(address,(address,address,uint24,int24,address),uint256,uint256,bytes)":"e1b4af69","afterInitialize(address,(address,address,uint24,int24,address),uint160,int24,bytes)":"a910f80f","afterRemoveLiquidity(address,(address,address,uint24,int24,address),(int24,int24,int256,bytes32),int256,int256,bytes)":"6c2bbe7e","afterSwap(address,(address,address,uint24,int24,address),(bool,int256,uint160),int256,bytes)":"b47b2fb1","beforeAddLiquidity(address,(address,address,uint24,int24,address),(int24,int24,int256,bytes32),bytes)":"259982e5","beforeDonate(address,(address,address,uint24,int24,address),uint256,uint256,bytes)":"b6a8b0fa","beforeInitialize(address,(address,address,uint24,int24,address),uint160,bytes)":"3440d820","beforeRemoveLiquidity(address,(address,address,uint24,int24,address),(int24,int24,int256,bytes32),bytes)":"21d0ee70","beforeSwap(address,(address,address,uint24,int24,address),(bool,int256,uint160),bytes)":"575e24b4"},"id":78}