{"abi":[{"type":"constructor","inputs":[{"name":"_poolManager","type":"address","internalType":"contract IPoolManager"},{"name":"_permit2","type":"address","internalType":"contract IAllowanceTransfer"},{"name":"_unsubscribeGasLimit","type":"uint256","internalType":"uint256"}],"stateMutability":"nonpayable"},{"type":"function","name":"DOMAIN_SEPARATOR","inputs":[],"outputs":[{"name":"","type":"bytes32","internalType":"bytes32"}],"stateMutability":"view"},{"type":"function","name":"approve","inputs":[{"name":"spender","type":"address","internalType":"address"},{"name":"id","type":"uint256","internalType":"uint256"}],"outputs":[],"stateMutability":"nonpayable"},{"type":"function","name":"balanceOf","inputs":[{"name":"owner","type":"address","internalType":"address"}],"outputs":[{"name":"","type":"uint256","internalType":"uint256"}],"stateMutability":"view"},{"type":"function","name":"getApproved","inputs":[{"name":"","type":"uint256","internalType":"uint256"}],"outputs":[{"name":"","type":"address","internalType":"address"}],"stateMutability":"view"},{"type":"function","name":"getPoolAndPositionInfo","inputs":[{"name":"tokenId","type":"uint256","internalType":"uint256"}],"outputs":[{"name":"poolKey","type":"tuple","internalType":"struct PoolKey","components":[{"name":"currency0","type":"address","internalType":"Currency"},{"name":"currency1","type":"address","internalType":"Currency"},{"name":"fee","type":"uint24","internalType":"uint24"},{"name":"tickSpacing","type":"int24","internalType":"int24"},{"name":"hooks","type":"address","internalType":"contract IHooks"}]},{"name":"info","type":"uint256","internalType":"PositionInfo"}],"stateMutability":"view"},{"type":"function","name":"getPositionLiquidity","inputs":[{"name":"tokenId","type":"uint256","internalType":"uint256"}],"outputs":[{"name":"liquidity","type":"uint128","internalType":"uint128"}],"stateMutability":"view"},{"type":"function","name":"initializePool","inputs":[{"name":"key","type":"tuple","internalType":"struct PoolKey","components":[{"name":"currency0","type":"address","internalType":"Currency"},{"name":"currency1","type":"address","internalType":"Currency"},{"name":"fee","type":"uint24","internalType":"uint24"},{"name":"tickSpacing","type":"int24","internalType":"int24"},{"name":"hooks","type":"address","internalType":"contract IHooks"}]},{"name":"sqrtPriceX96","type":"uint160","internalType":"uint160"},{"name":"hookData","type":"bytes","internalType":"bytes"}],"outputs":[{"name":"","type":"int24","internalType":"int24"}],"stateMutability":"payable"},{"type":"function","name":"isApprovedForAll","inputs":[{"name":"","type":"address","internalType":"address"},{"name":"","type":"address","internalType":"address"}],"outputs":[{"name":"","type":"bool","internalType":"bool"}],"stateMutability":"view"},{"type":"function","name":"modifyLiquidities","inputs":[{"name":"unlockData","type":"bytes","internalType":"bytes"},{"name":"deadline","type":"uint256","internalType":"uint256"}],"outputs":[],"stateMutability":"payable"},{"type":"function","name":"modifyLiquiditiesWithoutUnlock","inputs":[{"name":"actions","type":"bytes","internalType":"bytes"},{"name":"params","type":"bytes[]","internalType":"bytes[]"}],"outputs":[],"stateMutability":"payable"},{"type":"function","name":"msgSender","inputs":[],"outputs":[{"name":"","type":"address","internalType":"address"}],"stateMutability":"view"},{"type":"function","name":"multicall","inputs":[{"name":"data","type":"bytes[]","internalType":"bytes[]"}],"outputs":[{"name":"results","type":"bytes[]","internalType":"bytes[]"}],"stateMutability":"payable"},{"type":"function","name":"name","inputs":[],"outputs":[{"name":"","type":"string","internalType":"string"}],"stateMutability":"view"},{"type":"function","name":"nextTokenId","inputs":[],"outputs":[{"name":"","type":"uint256","internalType":"uint256"}],"stateMutability":"view"},{"type":"function","name":"nonces","inputs":[{"name":"owner","type":"address","internalType":"address"},{"name":"word","type":"uint256","internalType":"uint256"}],"outputs":[{"name":"bitmap","type":"uint256","internalType":"uint256"}],"stateMutability":"view"},{"type":"function","name":"ownerOf","inputs":[{"name":"id","type":"uint256","internalType":"uint256"}],"outputs":[{"name":"owner","type":"address","internalType":"address"}],"stateMutability":"view"},{"type":"function","name":"permit","inputs":[{"name":"spender","type":"address","internalType":"address"},{"name":"tokenId","type":"uint256","internalType":"uint256"},{"name":"deadline","type":"uint256","internalType":"uint256"},{"name":"nonce","type":"uint256","internalType":"uint256"},{"name":"signature","type":"bytes","internalType":"bytes"}],"outputs":[],"stateMutability":"payable"},{"type":"function","name":"permit","inputs":[{"name":"owner","type":"address","internalType":"address"},{"name":"permitSingle","type":"tuple","internalType":"struct IAllowanceTransfer.PermitSingle","components":[{"name":"details","type":"tuple","internalType":"struct IAllowanceTransfer.PermitDetails","components":[{"name":"token","type":"address","internalType":"address"},{"name":"amount","type":"uint160","internalType":"uint160"},{"name":"expiration","type":"uint48","internalType":"uint48"},{"name":"nonce","type":"uint48","internalType":"uint48"}]},{"name":"spender","type":"address","internalType":"address"},{"name":"sigDeadline","type":"uint256","internalType":"uint256"}]},{"name":"signature","type":"bytes","internalType":"bytes"}],"outputs":[{"name":"err","type":"bytes","internalType":"bytes"}],"stateMutability":"payable"},{"type":"function","name":"permit2","inputs":[],"outputs":[{"name":"","type":"address","internalType":"contract IAllowanceTransfer"}],"stateMutability":"view"},{"type":"function","name":"permitBatch","inputs":[{"name":"owner","type":"address","internalType":"address"},{"name":"_permitBatch","type":"tuple","internalType":"struct IAllowanceTransfer.PermitBatch","components":[{"name":"details","type":"tuple[]","internalType":"struct IAllowanceTransfer.PermitDetails[]","components":[{"name":"token","type":"address","internalType":"address"},{"name":"amount","type":"uint160","internalType":"uint160"},{"name":"expiration","type":"uint48","internalType":"uint48"},{"name":"nonce","type":"uint48","internalType":"uint48"}]},{"name":"spender","type":"address","internalType":"address"},{"name":"sigDeadline","type":"uint256","internalType":"uint256"}]},{"name":"signature","type":"bytes","internalType":"bytes"}],"outputs":[{"name":"err","type":"bytes","internalType":"bytes"}],"stateMutability":"payable"},{"type":"function","name":"permitForAll","inputs":[{"name":"owner","type":"address","internalType":"address"},{"name":"operator","type":"address","internalType":"address"},{"name":"approved","type":"bool","internalType":"bool"},{"name":"deadline","type":"uint256","internalType":"uint256"},{"name":"nonce","type":"uint256","internalType":"uint256"},{"name":"signature","type":"bytes","internalType":"bytes"}],"outputs":[],"stateMutability":"payable"},{"type":"function","name":"poolKeys","inputs":[{"name":"poolId","type":"bytes25","internalType":"bytes25"}],"outputs":[{"name":"currency0","type":"address","internalType":"Currency"},{"name":"currency1","type":"address","internalType":"Currency"},{"name":"fee","type":"uint24","internalType":"uint24"},{"name":"tickSpacing","type":"int24","internalType":"int24"},{"name":"hooks","type":"address","internalType":"contract IHooks"}],"stateMutability":"view"},{"type":"function","name":"poolManager","inputs":[],"outputs":[{"name":"","type":"address","internalType":"contract IPoolManager"}],"stateMutability":"view"},{"type":"function","name":"positionInfo","inputs":[{"name":"tokenId","type":"uint256","internalType":"uint256"}],"outputs":[{"name":"info","type":"uint256","internalType":"PositionInfo"}],"stateMutability":"view"},{"type":"function","name":"revokeNonce","inputs":[{"name":"nonce","type":"uint256","internalType":"uint256"}],"outputs":[],"stateMutability":"payable"},{"type":"function","name":"safeTransferFrom","inputs":[{"name":"from","type":"address","internalType":"address"},{"name":"to","type":"address","internalType":"address"},{"name":"id","type":"uint256","internalType":"uint256"}],"outputs":[],"stateMutability":"nonpayable"},{"type":"function","name":"safeTransferFrom","inputs":[{"name":"from","type":"address","internalType":"address"},{"name":"to","type":"address","internalType":"address"},{"name":"id","type":"uint256","internalType":"uint256"},{"name":"data","type":"bytes","internalType":"bytes"}],"outputs":[],"stateMutability":"nonpayable"},{"type":"function","name":"setApprovalForAll","inputs":[{"name":"operator","type":"address","internalType":"address"},{"name":"approved","type":"bool","internalType":"bool"}],"outputs":[],"stateMutability":"nonpayable"},{"type":"function","name":"subscribe","inputs":[{"name":"tokenId","type":"uint256","internalType":"uint256"},{"name":"newSubscriber","type":"address","internalType":"address"},{"name":"data","type":"bytes","internalType":"bytes"}],"outputs":[],"stateMutability":"payable"},{"type":"function","name":"subscriber","inputs":[{"name":"tokenId","type":"uint256","internalType":"uint256"}],"outputs":[{"name":"subscriber","type":"address","internalType":"contract ISubscriber"}],"stateMutability":"view"},{"type":"function","name":"supportsInterface","inputs":[{"name":"interfaceId","type":"bytes4","internalType":"bytes4"}],"outputs":[{"name":"","type":"bool","internalType":"bool"}],"stateMutability":"view"},{"type":"function","name":"symbol","inputs":[],"outputs":[{"name":"","type":"string","internalType":"string"}],"stateMutability":"view"},{"type":"function","name":"tokenURI","inputs":[{"name":"","type":"uint256","internalType":"uint256"}],"outputs":[{"name":"","type":"string","internalType":"string"}],"stateMutability":"pure"},{"type":"function","name":"transferFrom","inputs":[{"name":"from","type":"address","internalType":"address"},{"name":"to","type":"address","internalType":"address"},{"name":"id","type":"uint256","internalType":"uint256"}],"outputs":[],"stateMutability":"nonpayable"},{"type":"function","name":"unlockCallback","inputs":[{"name":"data","type":"bytes","internalType":"bytes"}],"outputs":[{"name":"","type":"bytes","internalType":"bytes"}],"stateMutability":"nonpayable"},{"type":"function","name":"unsubscribe","inputs":[{"name":"tokenId","type":"uint256","internalType":"uint256"}],"outputs":[],"stateMutability":"payable"},{"type":"function","name":"unsubscribeGasLimit","inputs":[],"outputs":[{"name":"","type":"uint256","internalType":"uint256"}],"stateMutability":"view"},{"type":"event","name":"Approval","inputs":[{"name":"owner","type":"address","indexed":true,"internalType":"address"},{"name":"spender","type":"address","indexed":true,"internalType":"address"},{"name":"id","type":"uint256","indexed":true,"internalType":"uint256"}],"anonymous":false},{"type":"event","name":"ApprovalForAll","inputs":[{"name":"owner","type":"address","indexed":true,"internalType":"address"},{"name":"operator","type":"address","indexed":true,"internalType":"address"},{"name":"approved","type":"bool","indexed":false,"internalType":"bool"}],"anonymous":false},{"type":"event","name":"Subscription","inputs":[{"name":"tokenId","type":"uint256","indexed":true,"internalType":"uint256"},{"name":"subscriber","type":"address","indexed":true,"internalType":"address"}],"anonymous":false},{"type":"event","name":"Transfer","inputs":[{"name":"from","type":"address","indexed":true,"internalType":"address"},{"name":"to","type":"address","indexed":true,"internalType":"address"},{"name":"id","type":"uint256","indexed":true,"internalType":"uint256"}],"anonymous":false},{"type":"event","name":"Unsubscription","inputs":[{"name":"tokenId","type":"uint256","indexed":true,"internalType":"uint256"},{"name":"subscriber","type":"address","indexed":true,"internalType":"address"}],"anonymous":false},{"type":"error","name":"AlreadySubscribed","inputs":[{"name":"tokenId","type":"uint256","internalType":"uint256"},{"name":"subscriber","type":"address","internalType":"address"}]},{"type":"error","name":"ContractLocked","inputs":[]},{"type":"error","name":"DeadlinePassed","inputs":[{"name":"deadline","type":"uint256","internalType":"uint256"}]},{"type":"error","name":"DeltaNotNegative","inputs":[{"name":"currency","type":"address","internalType":"Currency"}]},{"type":"error","name":"DeltaNotPositive","inputs":[{"name":"currency","type":"address","internalType":"Currency"}]},{"type":"error","name":"GasLimitTooLow","inputs":[]},{"type":"error","name":"InputLengthMismatch","inputs":[]},{"type":"error","name":"InvalidContractSignature","inputs":[]},{"type":"error","name":"InvalidSignature","inputs":[]},{"type":"error","name":"InvalidSignatureLength","inputs":[]},{"type":"error","name":"InvalidSigner","inputs":[]},{"type":"error","name":"MaximumAmountExceeded","inputs":[{"name":"maximumAmount","type":"uint128","internalType":"uint128"},{"name":"amountRequested","type":"uint128","internalType":"uint128"}]},{"type":"error","name":"MinimumAmountInsufficient","inputs":[{"name":"minimumAmount","type":"uint128","internalType":"uint128"},{"name":"amountReceived","type":"uint128","internalType":"uint128"}]},{"type":"error","name":"NoCodeSubscriber","inputs":[]},{"type":"error","name":"NoSelfPermit","inputs":[]},{"type":"error","name":"NonceAlreadyUsed","inputs":[]},{"type":"error","name":"NotApproved","inputs":[{"name":"caller","type":"address","internalType":"address"}]},{"type":"error","name":"NotPoolManager","inputs":[]},{"type":"error","name":"NotSubscribed","inputs":[]},{"type":"error","name":"SignatureDeadlineExpired","inputs":[]},{"type":"error","name":"Unauthorized","inputs":[]},{"type":"error","name":"UnsupportedAction","inputs":[{"name":"action","type":"uint256","internalType":"uint256"}]},{"type":"error","name":"Wrap__ModifyLiquidityNotificationReverted","inputs":[{"name":"subscriber","type":"address","internalType":"address"},{"name":"reason","type":"bytes","internalType":"bytes"}]},{"type":"error","name":"Wrap__SubscriptionReverted","inputs":[{"name":"subscriber","type":"address","internalType":"address"},{"name":"reason","type":"bytes","internalType":"bytes"}]},{"type":"error","name":"Wrap__TransferNotificationReverted","inputs":[{"name":"subscriber","type":"address","internalType":"address"},{"name":"reason","type":"bytes","internalType":"bytes"}]}],"bytecode":{"object":"0x6101406040526001600855348015610015575f80fd5b5060405161447538038061447583398101604081905261003491610167565b81818480806040518060400160405280601881526020017f556e697377617020563420506f736974696f6e73204e465400000000000000008152506040518060400160405280600b81526020016a554e492d56342d504f534d60a81b815250818282815f90816100a4919061023f565b5060016100b1828261023f565b50508151602083012060c052504660a05261012560c051604080517f8cad95687ba82c2ce50e74f7b754645e5117c3a5bec8151c0726d5857980a8666020820152908101919091524660608201523060808201525f9060a00160405160208183030381529060405280519060200120905090565b6080525050506001600160a01b0390811660e0526101009390935250501661012052506102f9915050565b6001600160a01b0381168114610164575f80fd5b50565b5f805f60608486031215610179575f80fd5b835161018481610150565b602085015190935061019581610150565b80925050604084015190509250925092565b634e487b7160e01b5f52604160045260245ffd5b600181811c908216806101cf57607f821691505b6020821081036101ed57634e487b7160e01b5f52602260045260245ffd5b50919050565b601f82111561023a57805f5260205f20601f840160051c810160208510156102185750805b601f840160051c820191505b81811015610237575f8155600101610224565b50505b505050565b81516001600160401b03811115610258576102586101a7565b61026c8161026684546101bb565b846101f3565b6020601f82116001811461029e575f83156102875750848201515b5f19600385901b1c1916600184901b178455610237565b5f84815260208120601f198516915b828110156102cd57878501518255602094850194600190920191016102ad565b50848210156102ea57868401515f19600387901b60f8161c191681555b50505050600190811b01905550565b60805160a05160c05160e05161010051610120516140a96103cc5f395f8181610325015281816107dd01528181610b2401526130c001525f818161048201528181611d260152611d8301525f818161075501528181610e4e01528181611187015281816117f501528181611e210152818161267b0152818161271b0152818161277f0152818161283b0152818161289d0152818161293701528181612a4901528181612ee701528181612f5401528181613044015261308801525f610d0601525f610cb201525f610d6001526140a95ff3fe608060405260043610610211575f3560e01c80634afe393c1161011e57806395d89b41116100a8578063c87b56dd1161006d578063c87b56dd146106dc578063d737d0c714610724578063dc4c90d314610744578063dd46508f14610777578063e985e9c51461078a575f80fd5b806395d89b4114610657578063a22cb4651461066b578063ac9650d81461068a578063ad0b27fb146106aa578063b88d4fde146106bd575f80fd5b806375794a3c116100ee57806375794a3c1461052b5780637ba03aad1461054057806386b6be7d1461056d57806389097a6a1461060d57806391dd734614610638575f80fd5b80634afe393c146104a4578063502e1a16146104b75780636352211e146104ed57806370a082311461050c575f80fd5b80631efeed331161019f5780633644e5151161016f5780633644e515146103f75780633aea60f0146104195780633b1fda971461042c57806342842e0e146104525780634767565f14610471575f80fd5b80631efeed331461037b57806323b872dd146103b25780632b67b570146103d15780632b9261de146103e4575f80fd5b8063081812fc116101e5578063081812fc14610296578063095ea7b3146102e25780630f5730f11461030157806312261ee71461031457806316a2413114610347575f80fd5b80622a3e3a1461021557806301ffc9a71461023e57806305c1ee201461026d57806306fdde0314610282575b5f80fd5b6102286102233660046132f1565b6107c3565b604051610235919061339a565b60405180910390f35b348015610249575f80fd5b5061025d6102583660046133c1565b61087e565b6040519015158152602001610235565b61028061027b3660046133dc565b6108cf565b005b34801561028d575f80fd5b506102286108dc565b3480156102a1575f80fd5b506102ca6102b03660046133dc565b60046020525f90815260409020546001600160a01b031681565b6040516001600160a01b039091168152602001610235565b3480156102ed575f80fd5b506102806102fc3660046133f3565b610967565b61028061030f36600461341d565b6109de565b34801561031f575f80fd5b506102ca7f000000000000000000000000000000000000000000000000000000000000000081565b348015610352575f80fd5b506102ca6103613660046133dc565b60076020525f90815260409020546001600160a01b031681565b348015610386575f80fd5b5061039a6103953660046133dc565b610aaa565b6040516001600160801b039091168152602001610235565b3480156103bd575f80fd5b506102806103cc36600461348a565b610ade565b6102286103df3660046134c8565b610b0a565b6102806103f236600461351a565b610b5f565b348015610402575f80fd5b5061040b610caf565b604051908152602001610235565b61028061042736600461354e565b610d82565b61043f61043a3660046135d4565b610e35565b60405160029190910b8152602001610235565b34801561045d575f80fd5b5061028061046c36600461348a565b610ed2565b34801561047c575f80fd5b5061040b7f000000000000000000000000000000000000000000000000000000000000000081565b6102806104b2366004613661565b610fc1565b3480156104c2575f80fd5b5061040b6104d13660046133f3565b600660209081525f928352604080842090915290825290205481565b3480156104f8575f80fd5b506102ca6105073660046133dc565b61101b565b348015610517575f80fd5b5061040b6105263660046136bf565b611071565b348015610536575f80fd5b5061040b60085481565b34801561054b575f80fd5b5061055f61055a3660046133dc565b6110d2565b60405161023592919061371d565b348015610578575f80fd5b506105cd610587366004613738565b600a6020525f90815260409020805460018201546002928301546001600160a01b03928316938284169362ffffff600160a01b85041693600160b81b900490910b911685565b604080516001600160a01b039687168152948616602086015262ffffff9093169284019290925260020b606083015291909116608082015260a001610235565b348015610618575f80fd5b5061040b6106273660046133dc565b60096020525f908152604090205481565b348015610643575f80fd5b5061022861065236600461375f565b61117a565b348015610662575f80fd5b506102286111d6565b348015610676575f80fd5b5061028061068536600461379d565b6111e3565b61069d6106983660046137d0565b6111f2565b6040516102359190613802565b6102806106b83660046133dc565b6112ff565b3480156106c8575f80fd5b506102806106d7366004613865565b61133c565b3480156106e7575f80fd5b506102286106f63660046133dc565b5060408051808201909152601381527268747470733a2f2f6578616d706c652e636f6d60681b602082015290565b34801561072f575f80fd5b505f805160206140548339815191525c6102ca565b34801561074f575f80fd5b506102ca7f000000000000000000000000000000000000000000000000000000000000000081565b6102806107853660046138d2565b611421565b348015610795575f80fd5b5061025d6107a4366004613919565b600560209081525f928352604080842090915290825290205460ff1681565b604051632a2d80d160e01b81526060906001600160a01b037f00000000000000000000000000000000000000000000000000000000000000001690632a2d80d1906108189088908890889088906004016139f5565b5f604051808303815f87803b15801561082f575f80fd5b505af1925050508015610840575060015b610876573d80801561086d576040519150601f19603f3d011682016040523d82523d5f602084013e610872565b606091505b5090505b949350505050565b5f6301ffc9a760e01b6001600160e01b0319831614806108ae57506380ac58cd60e01b6001600160e01b03198316145b806108c95750635b5e139f60e01b6001600160e01b03198316145b92915050565b6108d93382611499565b50565b5f80546108e890613ad0565b80601f016020809104026020016040519081016040528092919081815260200182805461091490613ad0565b801561095f5780601f106109365761010080835404028352916020019161095f565b820191905f5260205f20905b81548152906001019060200180831161094257829003601f168201915b505050505081565b5f818152600260205260409020546001600160a01b03163381148015906109b157506001600160a01b0381165f90815260056020908152604080832033845290915290205460ff16155b156109ce576040516282b42960e81b815260040160405180910390fd5b6109d98184846114ff565b505050565b8380421115610a0057604051635a9165ff60e01b815260040160405180910390fd5b5f8681526002602090815260408083205481517f49ecf333e5b8c95c40fdafc95c1ad136e8914a8fb55e9dc8bb01eaa83a2df9ad81526001600160a01b038c81169482019485529281018b8152606082018a8152608083018c815260a08420938890529587905290869052859052939092521690610a8a610a808261155a565b8690869085611599565b610a948287611499565b610a9f828a8a6114ff565b505050505050505050565b5f805f610ab6846110d2565b915091506108768483610acc8460081c60020b90565b610ad98560201c60020b90565b6117ae565b610ae9838383611826565b5f8181526009602052604090205460ff16156109d9576109d98184846119e8565b6040516302b67b5760e41b81526060906001600160a01b037f00000000000000000000000000000000000000000000000000000000000000001690632b67b57090610818908890889088908890600401613b08565b3384610b6b8282611a6d565b610b98576040516301952d1b60e31b81526001600160a01b03831660048201526024015b60405180910390fd5b5f868152600760205260409020546001600160a01b03168015610be0576040516312fdec5f60e11b8152600481018890526001600160a01b0382166024820152604401610b8f565b610be987611af4565b5f8781526007602052604080822080546001600160a01b0319166001600160a01b038a1617905551610c58908890610c29908b908a908a90602401613b61565b60408051601f198184030181529190526020810180516001600160e01b03166346abfb5960e11b179052611b17565b905080610c7057610c706363b23e9f60e01b88611b4c565b6040516001600160a01b0388169089907f9709492381f90bdc5938bb4e3b8e35b7e0eac8af058619e27191c5a40ce79fa9905f90a35050505050505050565b5f7f00000000000000000000000000000000000000000000000000000000000000004614610d5d57610d58604080517f8cad95687ba82c2ce50e74f7b754645e5117c3a5bec8151c0726d5857980a86660208201527f0000000000000000000000000000000000000000000000000000000000000000918101919091524660608201523060808201525f9060a00160405160208183030381529060405280519060200120905090565b905090565b507f000000000000000000000000000000000000000000000000000000000000000090565b8380421115610da457604051635a9165ff60e01b815260040160405180910390fd5b604080517f6673cb397ee2a50b6b8401653d3638b4ac8b3db9c28aa6870ffceb7574ec2f7681526001600160a01b0389166020820190815260018916928201928352606082018781526080830189815260a084205f9485905292849052938390528290529152610e20610e168261155a565b859085908c611599565b610e2a8986611499565b610a9f898989611b7f565b60405163695c5bf560e01b81525f906001600160a01b037f0000000000000000000000000000000000000000000000000000000000000000169063695c5bf590610e89908890889088908890600401613b98565b6020604051808303815f875af1158015610ea5573d5f803e3d5ffd5b505050506040513d601f19601f82011682018060405250810190610ec99190613c3b565b95945050505050565b610edd838383610ade565b6001600160a01b0382163b1580610f825750604051630a85bd0160e11b8082523360048301526001600160a01b03858116602484015260448301849052608060648401525f608484015290919084169063150b7a029060a4016020604051808303815f875af1158015610f52573d5f803e3d5ffd5b505050506040513d601f19601f82011682018060405250810190610f769190613c56565b6001600160e01b031916145b6109d95760405162461bcd60e51b815260206004820152601060248201526f155394d0519157d49150d2541251539560821b6044820152606401610b8f565b6001600160a01b035f805160206140548339815191525c1615610ff7576040516337affdbf60e11b815260040160405180910390fd5b61100033611beb565b61100c84848484611bfe565b6110155f611beb565b50505050565b5f818152600260205260409020546001600160a01b03168061106c5760405162461bcd60e51b815260206004820152600a6024820152691393d517d3525395115160b21b6044820152606401610b8f565b919050565b5f6001600160a01b0382166110b75760405162461bcd60e51b815260206004820152600c60248201526b5a45524f5f4144445245535360a01b6044820152606401610b8f565b506001600160a01b03165f9081526003602052604090205490565b6040805160a080820183525f808352602080840182905283850182905260608085018390526080948501839052958252600981528482205466ffffffffffffff1981168352600a8252918590208551938401865280546001600160a01b039081168552600182015480821693860193909352600160a01b830462ffffff1696850196909652600160b81b909104600290810b9684019690965294909401549092169082015291565b6060336001600160a01b037f000000000000000000000000000000000000000000000000000000000000000016146111c55760405163570c108560e11b815260040160405180910390fd5b6111cf8383611c7e565b9392505050565b600180546108e890613ad0565b6111ee338383611b7f565b5050565b6060816001600160401b0381111561120c5761120c613c71565b60405190808252806020026020018201604052801561123f57816020015b606081526020019060019003908161122a5790505b5090505f5b828110156112f8575f803086868581811061126157611261613c85565b90506020028101906112739190613c99565b604051611281929190613cdb565b5f60405180830381855af49150503d805f81146112b9576040519150601f19603f3d011682016040523d82523d5f602084013e6112be565b606091505b5091509150816112d057805160208201fd5b808484815181106112e3576112e3613c85565b60209081029190910101525050600101611244565b5092915050565b338161130b8282611a6d565b611333576040516301952d1b60e31b81526001600160a01b0383166004820152602401610b8f565b6109d983611cbb565b611347858585610ade565b6001600160a01b0384163b15806113db5750604051630a85bd0160e11b808252906001600160a01b0386169063150b7a029061138f9033908a90899089908990600401613cea565b6020604051808303815f875af11580156113ab573d5f803e3d5ffd5b505050506040513d601f19601f820116820180604052508101906113cf9190613c56565b6001600160e01b031916145b61141a5760405162461bcd60e51b815260206004820152601060248201526f155394d0519157d49150d2541251539560821b6044820152606401610b8f565b5050505050565b6001600160a01b035f805160206140548339815191525c1615611457576040516337affdbf60e11b815260040160405180910390fd5b61146033611beb565b80804211156114855760405163bfb22adf60e01b815260048101829052602401610b8f565b61148f8484611e0a565b506109d95f611beb565b6001600160a01b0382165f908152600660209081526040808320600885901c808552925282208054600160ff861690811b91821892839055929390919081831690036114f757604051623f613760e71b815260040160405180910390fd5b505050505050565b5f8181526004602052604080822080546001600160a01b0319166001600160a01b0386811691821790925591518493918716917f8c5be1e5ebec7d5bd14f71427d1e84f3dd0314c0f7b2291e5b200ac8c7c3b92591a4505050565b5f80611564610caf565b905060405161190160f01b81528160028201528360228201526042812092505f81525f60208201525f60408201525050919050565b5f805f836001600160a01b03163b5f036116ff5760418690036115eb576115c286880188613d28565b9093509150868660408181106115da576115da613c85565b919091013560f81c91506116429050565b6040869003611629575f61160187890189613d28565b9094506001600160ff1b0381169350905061162160ff82901c601b613d5c565b915050611642565b604051634be6321b60e01b815260040160405180910390fd5b604080515f8082526020820180845288905260ff841692820192909252606081018590526080810184905260019060a0016020604051602081039080840390855afa158015611693573d5f803e3d5ffd5b5050604051601f1901519150506001600160a01b0381166116c757604051638baa579f60e01b815260040160405180910390fd5b846001600160a01b0316816001600160a01b0316146116f957604051632057875960e21b815260040160405180910390fd5b506117a5565b604051630b135d3f60e11b81525f906001600160a01b03861690631626ba7e906117319089908c908c90600401613b61565b602060405180830381865afa15801561174c573d5f803e3d5ffd5b505050506040513d601f19601f820116820180604052508101906117709190613c56565b90506001600160e01b03198116630b135d3f60e11b146117a357604051632c19a72f60e21b815260040160405180910390fd5b505b50505050505050565b60408051602681018690526006810183905260038101849052308152603a600c8201205f928201839052602082018390529082905260a0852061181c906001600160a01b037f0000000000000000000000000000000000000000000000000000000000000000169083611e9a565b9695505050505050565b5f818152600260205260409020546001600160a01b0384811691161461187b5760405162461bcd60e51b815260206004820152600a60248201526957524f4e475f46524f4d60b01b6044820152606401610b8f565b6001600160a01b0382166118c55760405162461bcd60e51b81526020600482015260116024820152701253959053125117d49150d25412515395607a1b6044820152606401610b8f565b336001600160a01b03841614806118fe57506001600160a01b0383165f90815260056020908152604080832033845290915290205460ff165b8061191e57505f818152600460205260409020546001600160a01b031633145b61195b5760405162461bcd60e51b815260206004820152600e60248201526d1393d517d055551213d49256915160921b6044820152606401610b8f565b6001600160a01b038084165f81815260036020908152604080832080545f19019055938616808352848320805460010190558583526002825284832080546001600160a01b03199081168317909155600490925284832080549092169091559251849392917fddf252ad1be2c89b69c2b068fc378daa952ba7f163c4a11628f55a4df523b3ef91a4505050565b5f83815260076020526040808220549051602481018690526001600160a01b03858116604483015284811660648301529091169190611a5590839060840160408051601f198184030181529190526020810180516001600160e01b031663876fda0760e01b179052611b17565b90508061141a5761141a63263bc7b560e01b83611b4c565b5f611a778261101b565b6001600160a01b0316836001600160a01b03161480611aae57505f828152600460205260409020546001600160a01b038481169116145b806111cf575060055f611ac08461101b565b6001600160a01b03908116825260208083019390935260409182015f9081209187168152925290205460ff16905092915050565b5f818152600960205260409020546001175b5f9182526009602052604090912055565b5f826001600160a01b03163b5f03611b3957611b39637c402b2160e01b611f11565b5f808351602085015f875af19392505050565b3d60405183815282600482015260406024820152816044820152815f606483013e602080601f8401040260640191508181fd5b6001600160a01b038381165f81815260056020908152604080832094871680845294825291829020805460ff191686151590811790915591519182527f17307eab39ab6107e8899845ad3d59bd9653f200f220920489ca2b5937696c31910160405180910390a3505050565b805f805160206140548339815191525d50565b82818114611c1f5760405163aaad13f760e01b815260040160405180910390fd5b5f5b818110156114f7575f868683818110611c3c57611c3c613c85565b919091013560f81c9150611c75905081868685818110611c5e57611c5e613c85565b9050602002810190611c709190613c99565b611f19565b50600101611c21565b6060365f365f611c8e8787612113565b9350935093509350611ca284848484611bfe565b505060408051602081019091525f815295945050505050565b5f818152600760205260409020546001600160a01b031680611cf05760405163046fcd8560e31b815260040160405180910390fd5b611cf9826121bb565b5f82815260076020526040902080546001600160a01b03191690556001600160a01b0381163b15611dd1577f00000000000000000000000000000000000000000000000000000000000000005a1015611d5c57611d5c6376a1e1d360e11b611f11565b604051632bd1774560e21b8152600481018390526001600160a01b0382169063af45dd14907f0000000000000000000000000000000000000000000000000000000000000000906024015f604051808303815f88803b158015611dbd575f80fd5b5087f193505050508015611dcf575060015b505b6040516001600160a01b0382169083907fa0ebb1de82db929a9153472f37d3a66dbede4436258311ad0f52a35a2c91d150905f90a35050565b6040516348c8949160e01b81526001600160a01b037f000000000000000000000000000000000000000000000000000000000000000016906348c8949190611e589085908590600401613d75565b5f604051808303815f875af1158015611e73573d5f803e3d5ffd5b505050506040513d5f823e601f3d908101601f191682016040526109d99190810190613db8565b5f80611ea684846121d2565b604051631e2eaeaf60e01b8152600481018290529091506001600160a01b03861690631e2eaeaf906024015b602060405180830381865afa158015611eed573d5f803e3d5ffd5b505050506040513d601f19601f82011682018060405250810190610ec99190613e4a565b805f5260045ffd5b600983101561200a5782611f51575f805f80365f611f378888612222565b955095509550955095509550610a9f86868686868661224f565b60018303611f83575f805f80365f611f698888612222565b955095509550955095509550610a9f8686868686866122d2565b60028303611fd757365f805f805f80365f611f9e8b8b612356565b985098509850985098509850985098509850611fc9898989898989611fc28a612397565b89896123da565b505050505050505050505050565b60038303612005575f805f365f611fee87876124b4565b945094509450945094506117a385858585856124dc565b6120f7565b60118303612023578135602083013561141a82826125ca565b6015830361204a578135602083013560408401356114f7838361204584612397565b6125f5565b6009830361207a578135602083013560408401356114f78361206b83612611565b6120758587612631565b61266b565b601283036120aa578135602083013560408401356114f78361209b84612397565b6120a584876127fe565b61280d565b601783036120bd5781356110158161288f565b601883036120d6578135602083013561141a82826128fe565b601983036120f7578135602083013561141a826120f283612397565b61297f565b604051635cda29d760e01b815260048101849052602401610b8f565b365f365f604086351860608701945063ffffffff6040880135169350606063ffffffe0601f860116018060208901351882179150808801905063ffffffff8135169250602081019350508160051b805f5b8281101561219357858101358281189490941793860135601f0163ffffffe01690910160209081019101612164565b50808501898901108317156121af57633b99b53d5f526004601cfd5b50505092959194509250565b5f8181526009602052604090205460ff1916611b06565b5f806121dd846129ae565b90505f6121eb600683613e61565b6040805160208101879052908101829052909150606001604051602081830303815290604052805190602001209250505092915050565b8135602083013560408401356060850135365f612241888860046129ea565b915091509295509295509295565b5f805160206140548339815191525c866122698282611a6d565b612291576040516301952d1b60e31b81526001600160a01b0383166004820152602401610b8f565b5f8061229c8a6110d2565b915091505f806122b883856122b08e612a2c565b8f8c8c612a45565b91509150611fc98a8a6122cb8585612b3a565b9190612b77565b5f805160206140548339815191525c866122ec8282611a6d565b612314576040516301952d1b60e31b81526001600160a01b0383166004820152602401610b8f565b5f8061231f8a6110d2565b915091505f8061233c83856123338e612a2c565b6122b090613e74565b91509150611fc98a8a61234f8585612b3a565b9190612c31565b8160a081013560c082013560e0830135610100840135610120850135610140860135365f612386898b600b6129ea565b915091509295985092959850929598565b5f5f196001600160a01b038316016123bd575f805160206140548339815191525c6108c9565b6001196001600160a01b038316016123d6575030919050565b5090565b60088054600181019091556123ef8482612ccd565b5f612409612402368d90038d018d613e8e565b8b8b612dd6565b5f83815260096020908152604080832084905566ffffffffffffff198416808452600a90925282206001015492935091600160b81b900460020b90036124705766ffffffffffffff1981165f908152600a602052604090208c9061246d8282613f45565b50505b5f612497838e8036038101906124869190613e8e565b61248f8d612a2c565b878a8a612a45565b5090506124a5818a8a612b77565b50505050505050505050505050565b813560208301356040840135365f6124ce878760036129ea565b915091509295509295909350565b5f805160206140548339815191525c856124f68282611a6d565b61251e576040516301952d1b60e31b81526001600160a01b0383166004820152602401610b8f565b5f80612529896110d2565b915091505f61254d8a846125408560081c60020b90565b610ad98660201c60020b90565b5f8b8152600960205260408120556001600160801b0316905061256f8a612e0e565b80156125ac575f80612596848661258586612a2c565b61258e90613e74565b8f8d8d612a45565b915091506125a98b8b61234f8585612b3a565b50505b60ff8216156125be576125be8a611cbb565b50505050505050505050565b5f805160206140548339815191525c6125e7838261207582612ed8565b6109d9828261207585612ed8565b61260383826120a586612f45565b6109d982826120a585612f45565b5f8161261d57306108c9565b5f805160206140548339815191525c6108c9565b5f600160ff1b83036126565761264f826001600160a01b0316612fa9565b90506108c9565b826126645761264f82612ed8565b50816108c9565b6001600160a01b0383166126fc577f00000000000000000000000000000000000000000000000000000000000000006001600160a01b03166311da60b4826040518263ffffffff1660e01b815260040160206040518083038185885af11580156126d7573d5f803e3d5ffd5b50505050506040513d601f19601f820116820180604052508101906110159190613e4a565b604051632961046560e21b81526001600160a01b0384811660048301527f0000000000000000000000000000000000000000000000000000000000000000169063a5841194906024015f604051808303815f87803b15801561275c575f80fd5b505af115801561276e573d5f803e3d5ffd5b5050505061277d838383613025565b7f00000000000000000000000000000000000000000000000000000000000000006001600160a01b03166311da60b46040518163ffffffff1660e01b81526004016020604051808303815f875af11580156127da573d5f803e3d5ffd5b505050506040513d601f19601f820116820180604052508101906110159190613e4a565b5f826126645761264f82612f45565b604051630b0d9c0960e01b81526001600160a01b0384811660048301528381166024830152604482018390527f00000000000000000000000000000000000000000000000000000000000000001690630b0d9c09906064015b5f604051808303815f87803b15801561287d575f80fd5b505af11580156117a5573d5f803e3d5ffd5b5f6128c46001600160a01b037f00000000000000000000000000000000000000000000000000000000000000001630846130ef565b90505f805160206140548339815191525c5f8212156128eb576109d9838261207585613e74565b5f8213156109d9576109d983828461280d565b5f61290883612f45565b90508181116129665760405163203c2d1360e21b81526001600160a01b038481166004830152602482018390527f000000000000000000000000000000000000000000000000000000000000000016906380f0b44c90604401612866565b6109d9835f805160206140548339815191525c8361280d565b5f612992836001600160a01b0316612fa9565b905080156109d9576109d96001600160a01b038416838361313e565b6040515f906129cd908390600690602001918252602082015260400190565b604051602081830303815290604052805190602001209050919050565b63ffffffff600582901b8401358116840160208181019282351691829184918301018688011015612a2257633b99b53d5f526004601cfd5b5050935093915050565b805f81121561106c5761106c6393dafdf160e01b611f11565b5f807f00000000000000000000000000000000000000000000000000000000000000006001600160a01b0316635a6bcfda886040518060800160405280612a8f8d60081c60020b90565b60020b8152602001612aa48d60201c60020b90565b60020b81526020018a81526020018981525087876040518563ffffffff1660e01b8152600401612ad79493929190613fe2565b60408051808303815f875af1158015612af2573d5f803e3d5ffd5b505050506040513d601f19601f82011682018060405250810190612b169190614031565b909250905060ff881615612b2f57612b2f8587836131d4565b965096945050505050565b5f608082811d9084901d03600f83810b9085900b03610ec9612b5b83613256565b612b6483613256565b6001600160801b031660809190911b1790565b5f612b828460801d90565b600f0b90505f612b9285600f0b90565b600f0b90505f82128015612bbf5750612baa82613e74565b6001600160801b0316846001600160801b0316105b15612bfa5783612bce83613e74565b60405163031e30ad60e41b81526001600160801b03928316600482015291166024820152604401610b8f565b5f81128015612c225750612c0d81613e74565b6001600160801b0316836001600160801b0316105b1561141a5782612bce82613e74565b816001600160801b0316612c50612c488560801d90565b600f0b613272565b6001600160801b03161015612c995781612c6d612c488560801d90565b604051630940b79160e11b81526001600160801b03928316600482015291166024820152604401610b8f565b806001600160801b0316612cb0612c4885600f0b90565b6001600160801b031610156109d95780612c6d612c4885600f0b90565b6001600160a01b038216612d175760405162461bcd60e51b81526020600482015260116024820152701253959053125117d49150d25412515395607a1b6044820152606401610b8f565b5f818152600260205260409020546001600160a01b031615612d6c5760405162461bcd60e51b815260206004820152600e60248201526d1053149150511657d3525395115160921b6044820152606401610b8f565b6001600160a01b0382165f81815260036020908152604080832080546001019055848352600290915280822080546001600160a01b0319168417905551839291907fddf252ad1be2c89b69c2b068fc378daa952ba7f163c4a11628f55a4df523b3ef908290a45050565b5f80612de38560a0902090565b90508362ffffff1660081b8362ffffff1660201b8266ffffffffffffff191617179150509392505050565b5f818152600260205260409020546001600160a01b031680612e5f5760405162461bcd60e51b815260206004820152600a6024820152691393d517d3525395115160b21b6044820152606401610b8f565b6001600160a01b0381165f81815260036020908152604080832080545f190190558583526002825280832080546001600160a01b031990811690915560049092528083208054909216909155518492907fddf252ad1be2c89b69c2b068fc378daa952ba7f163c4a11628f55a4df523b3ef908390a45050565b5f80612f0e6001600160a01b037f00000000000000000000000000000000000000000000000000000000000000001630856130ef565b90505f811315612f3c5760405163019a8d9360e51b81526001600160a01b0384166004820152602401610b8f565b6111cf81613e74565b5f80612f7b6001600160a01b037f00000000000000000000000000000000000000000000000000000000000000001630856130ef565b90505f8112156108c957604051634c085bf160e01b81526001600160a01b0384166004820152602401610b8f565b5f6001600160a01b038216612fbf575047919050565b6040516370a0823160e01b81523060048201526001600160a01b038316906370a0823190602401602060405180830381865afa158015613001573d5f803e3d5ffd5b505050506040513d601f19601f820116820180604052508101906108c99190613e4a565b306001600160a01b03831603613069576109d96001600160a01b0384167f00000000000000000000000000000000000000000000000000000000000000008361313e565b604051631b63c28b60e11b81526001600160a01b0383811660048301527f000000000000000000000000000000000000000000000000000000000000000081166024830152828116604483015284811660648301527f000000000000000000000000000000000000000000000000000000000000000016906336c7851690608401612866565b5f806001600160a01b0384165f526001600160a01b03831660205260405f209050846001600160a01b031663f135baaa826040518263ffffffff1660e01b8152600401611ed291815260200190565b5f6001600160a01b038416613172575f805f8085875af190508061316d5761316d638549db5960e01b84611b4c565b611015565b60405163a9059cbb60e01b81526001600160a01b038416600482015282602482015260205f6044835f895af13d15601f3d1160015f511416171691505f81525f60208201525f6040820152508061101557611015632c4b17e760e21b85611b4c565b5f838152600760205260408082205490516024810186905260448101859052606481018490526001600160a01b03909116919061323f90839060840160408051601f198184030181529190526020810180516001600160e01b031663d8865c2760e01b179052611b17565b90508061141a5761141a622ad16d60e61b83611b4c565b80600f81900b811461106c5761106c6393dafdf160e01b611f11565b5f8082600f0b12156123d6576123d66393dafdf160e01b611f11565b6001600160a01b03811681146108d9575f80fd5b803561106c8161328e565b5f8083601f8401126132bd575f80fd5b5081356001600160401b038111156132d3575f80fd5b6020830191508360208285010111156132ea575f80fd5b9250929050565b5f805f8060608587031215613304575f80fd5b843561330f8161328e565b935060208501356001600160401b03811115613329575f80fd5b85016060818803121561333a575f80fd5b925060408501356001600160401b03811115613354575f80fd5b613360878288016132ad565b95989497509550505050565b5f81518084528060208401602086015e5f602082860101526020601f19601f83011685010191505092915050565b602081525f6111cf602083018461336c565b6001600160e01b0319811681146108d9575f80fd5b5f602082840312156133d1575f80fd5b81356111cf816133ac565b5f602082840312156133ec575f80fd5b5035919050565b5f8060408385031215613404575f80fd5b823561340f8161328e565b946020939093013593505050565b5f805f805f8060a08789031215613432575f80fd5b863561343d8161328e565b955060208701359450604087013593506060870135925060808701356001600160401b0381111561346c575f80fd5b61347889828a016132ad565b979a9699509497509295939492505050565b5f805f6060848603121561349c575f80fd5b83356134a78161328e565b925060208401356134b78161328e565b929592945050506040919091013590565b5f805f808486036101008112156134dd575f80fd5b85356134e88161328e565b945060c0601f19820112156134fb575f80fd5b5060208501925060e08501356001600160401b03811115613354575f80fd5b5f805f806060858703121561352d575f80fd5b84359350602085013561333a8161328e565b8035801515811461106c575f80fd5b5f805f805f805f60c0888a031215613564575f80fd5b873561356f8161328e565b9650602088013561357f8161328e565b955061358d6040890161353f565b9450606088013593506080880135925060a08801356001600160401b038111156135b5575f80fd5b6135c18a828b016132ad565b989b979a50959850939692959293505050565b5f805f8084860360e08112156135e8575f80fd5b60a08112156135f5575f80fd5b5084935060a08501356136078161328e565b925060c08501356001600160401b03811115613354575f80fd5b5f8083601f840112613631575f80fd5b5081356001600160401b03811115613647575f80fd5b6020830191508360208260051b85010111156132ea575f80fd5b5f805f8060408587031215613674575f80fd5b84356001600160401b03811115613689575f80fd5b613695878288016132ad565b90955093505060208501356001600160401b038111156136b3575f80fd5b61336087828801613621565b5f602082840312156136cf575f80fd5b81356111cf8161328e565b80516001600160a01b03908116835260208083015182169084015260408083015162ffffff169084015260608083015160020b9084015260809182015116910152565b60c0810161372b82856136da565b8260a08301529392505050565b5f60208284031215613748575f80fd5b813566ffffffffffffff19811681146111cf575f80fd5b5f8060208385031215613770575f80fd5b82356001600160401b03811115613785575f80fd5b613791858286016132ad565b90969095509350505050565b5f80604083850312156137ae575f80fd5b82356137b98161328e565b91506137c76020840161353f565b90509250929050565b5f80602083850312156137e1575f80fd5b82356001600160401b038111156137f6575f80fd5b61379185828601613621565b5f602082016020835280845180835260408501915060408160051b8601019250602086015f5b8281101561385957603f1987860301845261384485835161336c565b94506020938401939190910190600101613828565b50929695505050505050565b5f805f805f60808688031215613879575f80fd5b85356138848161328e565b945060208601356138948161328e565b93506040860135925060608601356001600160401b038111156138b5575f80fd5b6138c1888289016132ad565b969995985093965092949392505050565b5f805f604084860312156138e4575f80fd5b83356001600160401b038111156138f9575f80fd5b613905868287016132ad565b909790965060209590950135949350505050565b5f806040838503121561392a575f80fd5b82356139358161328e565b915060208301356139458161328e565b809150509250929050565b803565ffffffffffff8116811461106c575f80fd5b80356139708161328e565b6001600160a01b0316825260208101356139898161328e565b6001600160a01b0316602083015265ffffffffffff6139aa60408301613950565b16604083015265ffffffffffff6139c360608301613950565b1660608301525050565b81835281816020850137505f828201602090810191909152601f909101601f19169091010190565b6001600160a01b0385168152606060208201525f60c08201853536879003601e19018112613a21575f80fd5b86016020810190356001600160401b03811115613a3c575f80fd5b8060071b3603821315613a4d575f80fd5b60608581015291829052905f9060e085015b81831015613a8457613a718185613965565b6080938401936001939093019201613a5f565b613a9060208a016132a2565b6001600160a01b0316608087015260408981013560a08801819052878303918801919091529350613ac281888a6139cd565b9a9950505050505050505050565b600181811c90821680613ae457607f821691505b602082108103613b0257634e487b7160e01b5f52602260045260245ffd5b50919050565b6001600160a01b0385168152613b216020820185613965565b5f6080850135613b308161328e565b6001600160a01b031660a08381019190915285013560c083015261010060e0830181905261181c90830184866139cd565b838152604060208201525f610ec96040830184866139cd565b62ffffff811681146108d9575f80fd5b8060020b81146108d9575f80fd5b5f8535613ba48161328e565b6001600160a01b031682526020860135613bbd8161328e565b6001600160a01b031660208301526040860135613bd981613b7a565b62ffffff1660408301526060860135613bf181613b8a565b60020b60608301526080860135613c078161328e565b6001600160a01b0381166080840152506001600160a01b03851660a083015260e060c083015261181c60e0830184866139cd565b5f60208284031215613c4b575f80fd5b81516111cf81613b8a565b5f60208284031215613c66575f80fd5b81516111cf816133ac565b634e487b7160e01b5f52604160045260245ffd5b634e487b7160e01b5f52603260045260245ffd5b5f808335601e19843603018112613cae575f80fd5b8301803591506001600160401b03821115613cc7575f80fd5b6020019150368190038213156132ea575f80fd5b818382375f9101908152919050565b6001600160a01b03868116825285166020820152604081018490526080606082018190525f90613d1d90830184866139cd565b979650505050505050565b5f8060408385031215613d39575f80fd5b50508035926020909101359150565b634e487b7160e01b5f52601160045260245ffd5b60ff81811683821601908111156108c9576108c9613d48565b602081525f6108766020830184866139cd565b604051601f8201601f191681016001600160401b0381118282101715613db057613db0613c71565b604052919050565b5f60208284031215613dc8575f80fd5b81516001600160401b03811115613ddd575f80fd5b8201601f81018413613ded575f80fd5b80516001600160401b03811115613e0657613e06613c71565b613e19601f8201601f1916602001613d88565b818152856020838501011115613e2d575f80fd5b8160208401602083015e5f91810160200191909152949350505050565b5f60208284031215613e5a575f80fd5b5051919050565b808201808211156108c9576108c9613d48565b5f600160ff1b8201613e8857613e88613d48565b505f0390565b5f60a0828403128015613e9f575f80fd5b5060405160a081016001600160401b0381118282101715613ec257613ec2613c71565b6040528235613ed08161328e565b81526020830135613ee08161328e565b60208201526040830135613ef381613b7a565b60408201526060830135613f0681613b8a565b60608201526080830135613f198161328e565b60808201529392505050565b80546001600160a01b0319166001600160a01b0392909216919091179055565b8135613f508161328e565b613f5a8183613f25565b50600181016020830135613f6d8161328e565b613f778183613f25565b506040830135613f8681613b7a565b81546060850135613f9681613b8a565b8060b81b62ffffff60b81b1662ffffff60a01b8460a01b1665ffffffffffff60a01b19841617178455505050505f6080830135613fd28161328e565b8091506110158160028501613f25565b613fec81866136da565b835160020b60a0820152602084015160020b60c0820152604084015160e082015260608401516101008201526101406101208201525f61181c610140830184866139cd565b5f8060408385031215614042575f80fd5b50508051602090910151909290915056fe0aedd6bde10e3aa2adec092b02a3e3e805795516cda41f27aa145b8f300af87aa2646970667358221220ac580b62dd4efbb2333ad52f9d10f472530864126e208174524a40ab2072008064736f6c634300081a0033","linkReferences":{}},"methodIdentifiers":{"DOMAIN_SEPARATOR()":"3644e515","approve(address,uint256)":"095ea7b3","balanceOf(address)":"70a08231","getApproved(uint256)":"081812fc","getPoolAndPositionInfo(uint256)":"7ba03aad","getPositionLiquidity(uint256)":"1efeed33","initializePool((address,address,uint24,int24,address),uint160,bytes)":"3b1fda97","isApprovedForAll(address,address)":"e985e9c5","modifyLiquidities(bytes,uint256)":"dd46508f","modifyLiquiditiesWithoutUnlock(bytes,bytes[])":"4afe393c","msgSender()":"d737d0c7","multicall(bytes[])":"ac9650d8","name()":"06fdde03","nextTokenId()":"75794a3c","nonces(address,uint256)":"502e1a16","ownerOf(uint256)":"6352211e","permit(address,((address,uint160,uint48,uint48),address,uint256),bytes)":"2b67b570","permit(address,uint256,uint256,uint256,bytes)":"0f5730f1","permit2()":"12261ee7","permitBatch(address,((address,uint160,uint48,uint48)[],address,uint256),bytes)":"002a3e3a","permitForAll(address,address,bool,uint256,uint256,bytes)":"3aea60f0","poolKeys(bytes25)":"86b6be7d","poolManager()":"dc4c90d3","positionInfo(uint256)":"89097a6a","revokeNonce(uint256)":"05c1ee20","safeTransferFrom(address,address,uint256)":"42842e0e","safeTransferFrom(address,address,uint256,bytes)":"b88d4fde","setApprovalForAll(address,bool)":"a22cb465","subscribe(uint256,address,bytes)":"2b9261de","subscriber(uint256)":"16a24131","supportsInterface(bytes4)":"01ffc9a7","symbol()":"95d89b41","tokenURI(uint256)":"c87b56dd","transferFrom(address,address,uint256)":"23b872dd","unlockCallback(bytes)":"91dd7346","unsubscribe(uint256)":"ad0b27fb","unsubscribeGasLimit()":"4767565f"},"id":99}