{"abi":[{"type":"constructor","inputs":[],"stateMutability":"nonpayable"},{"type":"function","name":"allowance","inputs":[{"name":"owner","type":"address","internalType":"address"},{"name":"spender","type":"address","internalType":"address"}],"outputs":[{"name":"","type":"uint256","internalType":"uint256"}],"stateMutability":"view"},{"type":"function","name":"approve","inputs":[{"name":"spender","type":"address","internalType":"address"},{"name":"value","type":"uint256","internalType":"uint256"}],"outputs":[{"name":"","type":"bool","internalType":"bool"}],"stateMutability":"nonpayable"},{"type":"function","name":"balanceOf","inputs":[{"name":"account","type":"address","internalType":"address"}],"outputs":[{"name":"","type":"uint256","internalType":"uint256"}],"stateMutability":"view"},{"type":"function","name":"decimals","inputs":[],"outputs":[{"name":"","type":"uint8","internalType":"uint8"}],"stateMutability":"view"},{"type":"function","name":"mint","inputs":[{"name":"target","type":"address","internalType":"address"}],"outputs":[],"stateMutability":"nonpayable"},{"type":"function","name":"name","inputs":[],"outputs":[{"name":"","type":"string","internalType":"string"}],"stateMutability":"view"},{"type":"function","name":"symbol","inputs":[],"outputs":[{"name":"","type":"string","internalType":"string"}],"stateMutability":"view"},{"type":"function","name":"totalSupply","inputs":[],"outputs":[{"name":"","type":"uint256","internalType":"uint256"}],"stateMutability":"view"},{"type":"function","name":"transfer","inputs":[{"name":"to","type":"address","internalType":"address"},{"name":"value","type":"uint256","internalType":"uint256"}],"outputs":[{"name":"","type":"bool","internalType":"bool"}],"stateMutability":"nonpayable"},{"type":"function","name":"transferFrom","inputs":[{"name":"from","type":"address","internalType":"address"},{"name":"to","type":"address","internalType":"address"},{"name":"value","type":"uint256","internalType":"uint256"}],"outputs":[{"name":"","type":"bool","internalType":"bool"}],"stateMutability":"nonpayable"},{"type":"event","name":"Approval","inputs":[{"name":"owner","type":"address","indexed":true,"internalType":"address"},{"name":"spender","type":"address","indexed":true,"internalType":"address"},{"name":"value","type":"uint256","indexed":false,"internalType":"uint256"}],"anonymous":false},{"type":"event","name":"Transfer","inputs":[{"name":"from","type":"address","indexed":true,"internalType":"address"},{"name":"to","type":"address","indexed":true,"internalType":"address"},{"name":"value","type":"uint256","indexed":false,"internalType":"uint256"}],"anonymous":false},{"type":"error","name":"ERC20InsufficientAllowance","inputs":[{"name":"spender","type":"address","internalType":"address"},{"name":"allowance","type":"uint256","internalType":"uint256"},{"name":"needed","type":"uint256","internalType":"uint256"}]},{"type":"error","name":"ERC20InsufficientBalance","inputs":[{"name":"sender","type":"address","internalType":"address"},{"name":"balance","type":"uint256","internalType":"uint256"},{"name":"needed","type":"uint256","internalType":"uint256"}]},{"type":"error","name":"ERC20InvalidApprover","inputs":[{"name":"approver","type":"address","internalType":"address"}]},{"type":"error","name":"ERC20InvalidReceiver","inputs":[{"name":"receiver","type":"address","internalType":"address"}]},{"type":"error","name":"ERC20InvalidSender","inputs":[{"name":"sender","type":"address","internalType":"address"}]},{"type":"error","name":"ERC20InvalidSpender","inputs":[{"name":"spender","type":"address","internalType":"address"}]}],"bytecode":{"object":"0x608060405234801561000f575f80fd5b50604080518082018252600280825261544b60f01b602080840182905284518086019095529184529083015290600361004883826100f5565b50600461005582826100f5565b5050506101af565b634e487b7160e01b5f52604160045260245ffd5b600181811c9082168061008557607f821691505b6020821081036100a357634e487b7160e01b5f52602260045260245ffd5b50919050565b601f8211156100f057805f5260205f20601f840160051c810160208510156100ce5750805b601f840160051c820191505b818110156100ed575f81556001016100da565b50505b505050565b81516001600160401b0381111561010e5761010e61005d565b6101228161011c8454610071565b846100a9565b6020601f821160018114610154575f831561013d5750848201515b5f19600385901b1c1916600184901b1784556100ed565b5f84815260208120601f198516915b828110156101835787850151825560209485019460019092019101610163565b50848210156101a057868401515f19600387901b60f8161c191681555b50505050600190811b01905550565b61081c806101bc5f395ff3fe608060405234801561000f575f80fd5b506004361061009b575f3560e01c80636a627842116100635780636a6278421461011457806370a082311461012957806395d89b4114610151578063a9059cbb14610159578063dd62ed3e1461016c575f80fd5b806306fdde031461009f578063095ea7b3146100bd57806318160ddd146100e057806323b872dd146100f2578063313ce56714610105575b5f80fd5b6100a76101a4565b6040516100b49190610686565b60405180910390f35b6100d06100cb3660046106ba565b610234565b60405190151581526020016100b4565b6002545b6040519081526020016100b4565b6100d06101003660046106e2565b61027f565b604051601281526020016100b4565b61012761012236600461071c565b6102a2565b005b6100e461013736600461071c565b6001600160a01b03165f9081526020819052604090205490565b6100a76102b8565b6100d06101673660046106ba565b6102c7565b6100e461017a366004610735565b6001600160a01b039182165f90815260016020908152604080832093909416825291909152205490565b6060600380546101b390610766565b80601f01602080910402602001604051908101604052809291908181526020018280546101df90610766565b801561022a5780601f106102015761010080835404028352916020019161022a565b820191905f5260205f20905b81548152906001019060200180831161020d57829003601f168201915b5050505050905090565b5f803390506102686040518060400160405280600d81526020016c30b8383937bb329037bbb732b960991b815250826102d4565b61027381858561031d565b60019150505b92915050565b5f3361028c85828561032f565b6102978585856103af565b506001949350505050565b6102b58168056bc75e2d6310000061040c565b50565b6060600480546101b390610766565b5f336102738185856103af565b61031982826040516024016102ea92919061079e565b60408051601f198184030181529190526020810180516001600160e01b031663319af33360e01b179052610440565b5050565b61032a8383836001610460565b505050565b6001600160a01b038381165f908152600160209081526040808320938616835292905220545f1981146103a9578181101561039b57604051637dc7a0d960e11b81526001600160a01b038416600482015260248101829052604481018390526064015b60405180910390fd5b6103a984848484035f610460565b50505050565b6001600160a01b0383166103d857604051634b637e8f60e11b81525f6004820152602401610392565b6001600160a01b0382166104015760405163ec442f0560e01b81525f6004820152602401610392565b61032a838383610532565b6001600160a01b0382166104355760405163ec442f0560e01b81525f6004820152602401610392565b6103195f8383610532565b80516a636f6e736f6c652e6c6f67602083015f808483855afa5050505050565b6001600160a01b0384166104895760405163e602df0560e01b81525f6004820152602401610392565b6001600160a01b0383166104b257604051634a1406b160e11b81525f6004820152602401610392565b6001600160a01b038085165f90815260016020908152604080832093871683529290522082905580156103a957826001600160a01b0316846001600160a01b03167f8c5be1e5ebec7d5bd14f71427d1e84f3dd0314c0f7b2291e5b200ac8c7c3b9258460405161052491815260200190565b60405180910390a350505050565b6001600160a01b03831661055c578060025f82825461055191906107c7565b909155506105cc9050565b6001600160a01b0383165f90815260208190526040902054818110156105ae5760405163391434e360e21b81526001600160a01b03851660048201526024810182905260448101839052606401610392565b6001600160a01b0384165f9081526020819052604090209082900390555b6001600160a01b0382166105e857600280548290039055610606565b6001600160a01b0382165f9081526020819052604090208054820190555b816001600160a01b0316836001600160a01b03167fddf252ad1be2c89b69c2b068fc378daa952ba7f163c4a11628f55a4df523b3ef8360405161064b91815260200190565b60405180910390a3505050565b5f81518084528060208401602086015e5f602082860101526020601f19601f83011685010191505092915050565b602081525f6106986020830184610658565b9392505050565b80356001600160a01b03811681146106b5575f80fd5b919050565b5f80604083850312156106cb575f80fd5b6106d48361069f565b946020939093013593505050565b5f805f606084860312156106f4575f80fd5b6106fd8461069f565b925061070b6020850161069f565b929592945050506040919091013590565b5f6020828403121561072c575f80fd5b6106988261069f565b5f8060408385031215610746575f80fd5b61074f8361069f565b915061075d6020840161069f565b90509250929050565b600181811c9082168061077a57607f821691505b60208210810361079857634e487b7160e01b5f52602260045260245ffd5b50919050565b604081525f6107b06040830185610658565b905060018060a01b03831660208301529392505050565b8082018082111561027957634e487b7160e01b5f52601160045260245ffdfea26469706673582212202460197bfd2555c50c905d47c171b83a38630bb2bc1b86bfec90fcccf698fd7464736f6c634300081a0033","linkReferences":{}},"methodIdentifiers":{"allowance(address,address)":"dd62ed3e","approve(address,uint256)":"095ea7b3","balanceOf(address)":"70a08231","decimals()":"313ce567","mint(address)":"6a627842","name()":"06fdde03","symbol()":"95d89b41","totalSupply()":"18160ddd","transfer(address,uint256)":"a9059cbb","transferFrom(address,address,uint256)":"23b872dd"},"id":133}