{"abi":[{"type":"function","name":"allowance","inputs":[{"name":"owner","type":"address","internalType":"address"},{"name":"spender","type":"address","internalType":"address"},{"name":"id","type":"uint256","internalType":"uint256"}],"outputs":[{"name":"amount","type":"uint256","internalType":"uint256"}],"stateMutability":"view"},{"type":"function","name":"approve","inputs":[{"name":"spender","type":"address","internalType":"address"},{"name":"id","type":"uint256","internalType":"uint256"},{"name":"amount","type":"uint256","internalType":"uint256"}],"outputs":[{"name":"","type":"bool","internalType":"bool"}],"stateMutability":"nonpayable"},{"type":"function","name":"balanceOf","inputs":[{"name":"owner","type":"address","internalType":"address"},{"name":"id","type":"uint256","internalType":"uint256"}],"outputs":[{"name":"balance","type":"uint256","internalType":"uint256"}],"stateMutability":"view"},{"type":"function","name":"burn","inputs":[{"name":"from","type":"address","internalType":"address"},{"name":"id","type":"uint256","internalType":"uint256"},{"name":"amount","type":"uint256","internalType":"uint256"}],"outputs":[],"stateMutability":"nonpayable"},{"type":"function","name":"clear","inputs":[{"name":"currency","type":"address","internalType":"Currency"},{"name":"amount","type":"uint256","internalType":"uint256"}],"outputs":[],"stateMutability":"nonpayable"},{"type":"function","name":"collectProtocolFees","inputs":[{"name":"recipient","type":"address","internalType":"address"},{"name":"currency","type":"address","internalType":"Currency"},{"name":"amount","type":"uint256","internalType":"uint256"}],"outputs":[{"name":"amountCollected","type":"uint256","internalType":"uint256"}],"stateMutability":"nonpayable"},{"type":"function","name":"donate","inputs":[{"name":"key","type":"tuple","internalType":"struct PoolKey","components":[{"name":"currency0","type":"address","internalType":"Currency"},{"name":"currency1","type":"address","internalType":"Currency"},{"name":"fee","type":"uint24","internalType":"uint24"},{"name":"tickSpacing","type":"int24","internalType":"int24"},{"name":"hooks","type":"address","internalType":"contract IHooks"}]},{"name":"amount0","type":"uint256","internalType":"uint256"},{"name":"amount1","type":"uint256","internalType":"uint256"},{"name":"hookData","type":"bytes","internalType":"bytes"}],"outputs":[{"name":"delta","type":"int256","internalType":"BalanceDelta"}],"stateMutability":"nonpayable"},{"type":"function","name":"extsload","inputs":[{"name":"slot","type":"bytes32","internalType":"bytes32"}],"outputs":[{"name":"","type":"bytes32","internalType":"bytes32"}],"stateMutability":"view"},{"type":"function","name":"extsload","inputs":[{"name":"startSlot","type":"bytes32","internalType":"bytes32"},{"name":"nSlots","type":"uint256","internalType":"uint256"}],"outputs":[{"name":"","type":"bytes32[]","internalType":"bytes32[]"}],"stateMutability":"view"},{"type":"function","name":"extsload","inputs":[{"name":"slots","type":"bytes32[]","internalType":"bytes32[]"}],"outputs":[{"name":"","type":"bytes32[]","internalType":"bytes32[]"}],"stateMutability":"view"},{"type":"function","name":"exttload","inputs":[{"name":"slots","type":"bytes32[]","internalType":"bytes32[]"}],"outputs":[{"name":"","type":"bytes32[]","internalType":"bytes32[]"}],"stateMutability":"view"},{"type":"function","name":"exttload","inputs":[{"name":"slot","type":"bytes32","internalType":"bytes32"}],"outputs":[{"name":"","type":"bytes32","internalType":"bytes32"}],"stateMutability":"view"},{"type":"function","name":"initialize","inputs":[{"name":"key","type":"tuple","internalType":"struct PoolKey","components":[{"name":"currency0","type":"address","internalType":"Currency"},{"name":"currency1","type":"address","internalType":"Currency"},{"name":"fee","type":"uint24","internalType":"uint24"},{"name":"tickSpacing","type":"int24","internalType":"int24"},{"name":"hooks","type":"address","internalType":"contract IHooks"}]},{"name":"sqrtPriceX96","type":"uint160","internalType":"uint160"},{"name":"hookData","type":"bytes","internalType":"bytes"}],"outputs":[{"name":"tick","type":"int24","internalType":"int24"}],"stateMutability":"nonpayable"},{"type":"function","name":"isOperator","inputs":[{"name":"owner","type":"address","internalType":"address"},{"name":"operator","type":"address","internalType":"address"}],"outputs":[{"name":"isOperator","type":"bool","internalType":"bool"}],"stateMutability":"view"},{"type":"function","name":"mint","inputs":[{"name":"to","type":"address","internalType":"address"},{"name":"id","type":"uint256","internalType":"uint256"},{"name":"amount","type":"uint256","internalType":"uint256"}],"outputs":[],"stateMutability":"nonpayable"},{"type":"function","name":"modifyLiquidity","inputs":[{"name":"key","type":"tuple","internalType":"struct PoolKey","components":[{"name":"currency0","type":"address","internalType":"Currency"},{"name":"currency1","type":"address","internalType":"Currency"},{"name":"fee","type":"uint24","internalType":"uint24"},{"name":"tickSpacing","type":"int24","internalType":"int24"},{"name":"hooks","type":"address","internalType":"contract IHooks"}]},{"name":"params","type":"tuple","internalType":"struct IPoolManager.ModifyLiquidityParams","components":[{"name":"tickLower","type":"int24","internalType":"int24"},{"name":"tickUpper","type":"int24","internalType":"int24"},{"name":"liquidityDelta","type":"int256","internalType":"int256"},{"name":"salt","type":"bytes32","internalType":"bytes32"}]},{"name":"hookData","type":"bytes","internalType":"bytes"}],"outputs":[{"name":"callerDelta","type":"int256","internalType":"BalanceDelta"},{"name":"feesAccrued","type":"int256","internalType":"BalanceDelta"}],"stateMutability":"nonpayable"},{"type":"function","name":"owner","inputs":[],"outputs":[{"name":"","type":"address","internalType":"address"}],"stateMutability":"view"},{"type":"function","name":"protocolFeeController","inputs":[],"outputs":[{"name":"","type":"address","internalType":"contract IProtocolFeeController"}],"stateMutability":"view"},{"type":"function","name":"protocolFeesAccrued","inputs":[{"name":"currency","type":"address","internalType":"Currency"}],"outputs":[{"name":"amount","type":"uint256","internalType":"uint256"}],"stateMutability":"view"},{"type":"function","name":"setOperator","inputs":[{"name":"operator","type":"address","internalType":"address"},{"name":"approved","type":"bool","internalType":"bool"}],"outputs":[{"name":"","type":"bool","internalType":"bool"}],"stateMutability":"nonpayable"},{"type":"function","name":"setProtocolFee","inputs":[{"name":"key","type":"tuple","internalType":"struct PoolKey","components":[{"name":"currency0","type":"address","internalType":"Currency"},{"name":"currency1","type":"address","internalType":"Currency"},{"name":"fee","type":"uint24","internalType":"uint24"},{"name":"tickSpacing","type":"int24","internalType":"int24"},{"name":"hooks","type":"address","internalType":"contract IHooks"}]},{"name":"newProtocolFee","type":"uint24","internalType":"uint24"}],"outputs":[],"stateMutability":"nonpayable"},{"type":"function","name":"setProtocolFeeController","inputs":[{"name":"controller","type":"address","internalType":"contract IProtocolFeeController"}],"outputs":[],"stateMutability":"nonpayable"},{"type":"function","name":"settle","inputs":[],"outputs":[{"name":"","type":"uint256","internalType":"uint256"}],"stateMutability":"payable"},{"type":"function","name":"settleFor","inputs":[{"name":"recipient","type":"address","internalType":"address"}],"outputs":[{"name":"","type":"uint256","internalType":"uint256"}],"stateMutability":"payable"},{"type":"function","name":"supportsInterface","inputs":[{"name":"interfaceId","type":"bytes4","internalType":"bytes4"}],"outputs":[{"name":"","type":"bool","internalType":"bool"}],"stateMutability":"view"},{"type":"function","name":"swap","inputs":[{"name":"key","type":"tuple","internalType":"struct PoolKey","components":[{"name":"currency0","type":"address","internalType":"Currency"},{"name":"currency1","type":"address","internalType":"Currency"},{"name":"fee","type":"uint24","internalType":"uint24"},{"name":"tickSpacing","type":"int24","internalType":"int24"},{"name":"hooks","type":"address","internalType":"contract IHooks"}]},{"name":"params","type":"tuple","internalType":"struct IPoolManager.SwapParams","components":[{"name":"zeroForOne","type":"bool","internalType":"bool"},{"name":"amountSpecified","type":"int256","internalType":"int256"},{"name":"sqrtPriceLimitX96","type":"uint160","internalType":"uint160"}]},{"name":"hookData","type":"bytes","internalType":"bytes"}],"outputs":[{"name":"swapDelta","type":"int256","internalType":"BalanceDelta"}],"stateMutability":"nonpayable"},{"type":"function","name":"sync","inputs":[{"name":"currency","type":"address","internalType":"Currency"}],"outputs":[],"stateMutability":"nonpayable"},{"type":"function","name":"take","inputs":[{"name":"currency","type":"address","internalType":"Currency"},{"name":"to","type":"address","internalType":"address"},{"name":"amount","type":"uint256","internalType":"uint256"}],"outputs":[],"stateMutability":"nonpayable"},{"type":"function","name":"transfer","inputs":[{"name":"receiver","type":"address","internalType":"address"},{"name":"id","type":"uint256","internalType":"uint256"},{"name":"amount","type":"uint256","internalType":"uint256"}],"outputs":[{"name":"","type":"bool","internalType":"bool"}],"stateMutability":"nonpayable"},{"type":"function","name":"transferFrom","inputs":[{"name":"sender","type":"address","internalType":"address"},{"name":"receiver","type":"address","internalType":"address"},{"name":"id","type":"uint256","internalType":"uint256"},{"name":"amount","type":"uint256","internalType":"uint256"}],"outputs":[{"name":"","type":"bool","internalType":"bool"}],"stateMutability":"nonpayable"},{"type":"function","name":"transferOwnership","inputs":[{"name":"newOwner","type":"address","internalType":"address"}],"outputs":[],"stateMutability":"nonpayable"},{"type":"function","name":"unlock","inputs":[{"name":"data","type":"bytes","internalType":"bytes"}],"outputs":[{"name":"result","type":"bytes","internalType":"bytes"}],"stateMutability":"nonpayable"},{"type":"function","name":"updateDynamicLPFee","inputs":[{"name":"key","type":"tuple","internalType":"struct PoolKey","components":[{"name":"currency0","type":"address","internalType":"Currency"},{"name":"currency1","type":"address","internalType":"Currency"},{"name":"fee","type":"uint24","internalType":"uint24"},{"name":"tickSpacing","type":"int24","internalType":"int24"},{"name":"hooks","type":"address","internalType":"contract IHooks"}]},{"name":"newDynamicLPFee","type":"uint24","internalType":"uint24"}],"outputs":[],"stateMutability":"nonpayable"},{"type":"event","name":"Approval","inputs":[{"name":"owner","type":"address","indexed":true,"internalType":"address"},{"name":"spender","type":"address","indexed":true,"internalType":"address"},{"name":"id","type":"uint256","indexed":true,"internalType":"uint256"},{"name":"amount","type":"uint256","indexed":false,"internalType":"uint256"}],"anonymous":false},{"type":"event","name":"Donate","inputs":[{"name":"id","type":"bytes32","indexed":true,"internalType":"PoolId"},{"name":"sender","type":"address","indexed":true,"internalType":"address"},{"name":"amount0","type":"uint256","indexed":false,"internalType":"uint256"},{"name":"amount1","type":"uint256","indexed":false,"internalType":"uint256"}],"anonymous":false},{"type":"event","name":"Initialize","inputs":[{"name":"id","type":"bytes32","indexed":true,"internalType":"PoolId"},{"name":"currency0","type":"address","indexed":true,"internalType":"Currency"},{"name":"currency1","type":"address","indexed":true,"internalType":"Currency"},{"name":"fee","type":"uint24","indexed":false,"internalType":"uint24"},{"name":"tickSpacing","type":"int24","indexed":false,"internalType":"int24"},{"name":"hooks","type":"address","indexed":false,"internalType":"contract IHooks"},{"name":"sqrtPriceX96","type":"uint160","indexed":false,"internalType":"uint160"},{"name":"tick","type":"int24","indexed":false,"internalType":"int24"}],"anonymous":false},{"type":"event","name":"ModifyLiquidity","inputs":[{"name":"id","type":"bytes32","indexed":true,"internalType":"PoolId"},{"name":"sender","type":"address","indexed":true,"internalType":"address"},{"name":"tickLower","type":"int24","indexed":false,"internalType":"int24"},{"name":"tickUpper","type":"int24","indexed":false,"internalType":"int24"},{"name":"liquidityDelta","type":"int256","indexed":false,"internalType":"int256"},{"name":"salt","type":"bytes32","indexed":false,"internalType":"bytes32"}],"anonymous":false},{"type":"event","name":"OperatorSet","inputs":[{"name":"owner","type":"address","indexed":true,"internalType":"address"},{"name":"operator","type":"address","indexed":true,"internalType":"address"},{"name":"approved","type":"bool","indexed":false,"internalType":"bool"}],"anonymous":false},{"type":"event","name":"OwnershipTransferred","inputs":[{"name":"user","type":"address","indexed":true,"internalType":"address"},{"name":"newOwner","type":"address","indexed":true,"internalType":"address"}],"anonymous":false},{"type":"event","name":"ProtocolFeeControllerUpdated","inputs":[{"name":"protocolFeeController","type":"address","indexed":true,"internalType":"address"}],"anonymous":false},{"type":"event","name":"ProtocolFeeUpdated","inputs":[{"name":"id","type":"bytes32","indexed":true,"internalType":"PoolId"},{"name":"protocolFee","type":"uint24","indexed":false,"internalType":"uint24"}],"anonymous":false},{"type":"event","name":"Swap","inputs":[{"name":"id","type":"bytes32","indexed":true,"internalType":"PoolId"},{"name":"sender","type":"address","indexed":true,"internalType":"address"},{"name":"amount0","type":"int128","indexed":false,"internalType":"int128"},{"name":"amount1","type":"int128","indexed":false,"internalType":"int128"},{"name":"sqrtPriceX96","type":"uint160","indexed":false,"internalType":"uint160"},{"name":"liquidity","type":"uint128","indexed":false,"internalType":"uint128"},{"name":"tick","type":"int24","indexed":false,"internalType":"int24"},{"name":"fee","type":"uint24","indexed":false,"internalType":"uint24"}],"anonymous":false},{"type":"event","name":"Transfer","inputs":[{"name":"caller","type":"address","indexed":false,"internalType":"address"},{"name":"from","type":"address","indexed":true,"internalType":"address"},{"name":"to","type":"address","indexed":true,"internalType":"address"},{"name":"id","type":"uint256","indexed":true,"internalType":"uint256"},{"name":"amount","type":"uint256","indexed":false,"internalType":"uint256"}],"anonymous":false},{"type":"error","name":"AlreadyUnlocked","inputs":[]},{"type":"error","name":"ContractUnlocked","inputs":[]},{"type":"error","name":"CurrenciesOutOfOrderOrEqual","inputs":[{"name":"currency0","type":"address","internalType":"address"},{"name":"currency1","type":"address","internalType":"address"}]},{"type":"error","name":"CurrencyNotSettled","inputs":[]},{"type":"error","name":"DelegateCallNotAllowed","inputs":[]},{"type":"error","name":"InvalidBips","inputs":[]},{"type":"error","name":"InvalidCaller","inputs":[]},{"type":"error","name":"ManagerLocked","inputs":[]},{"type":"error","name":"MustClearExactPositiveDelta","inputs":[]},{"type":"error","name":"NonzeroNativeValue","inputs":[]},{"type":"error","name":"PoolNotInitialized","inputs":[]},{"type":"error","name":"ProtocolFeeCannotBeFetched","inputs":[]},{"type":"error","name":"ProtocolFeeTooLarge","inputs":[{"name":"fee","type":"uint24","internalType":"uint24"}]},{"type":"error","name":"SwapAmountCannotBeZero","inputs":[]},{"type":"error","name":"TickSpacingTooLarge","inputs":[{"name":"tickSpacing","type":"int24","internalType":"int24"}]},{"type":"error","name":"TickSpacingTooSmall","inputs":[{"name":"tickSpacing","type":"int24","internalType":"int24"}]},{"type":"error","name":"UnauthorizedDynamicLPFeeUpdate","inputs":[]}],"bytecode":{"object":"0x60a0604052348015600e575f80fd5b505f80546001600160a01b031916339081178255604051909182917f8be0079c531659141344cd1fd0a4f28419497f9722a3daafe3b4186f6b6457e0908290a35030608052608051614e5761006b5f395f6118380152614e575ff3fe6080604052600436106101e5575f3560e01c80635a6bcfda11610108578063a58411941161009d578063f135baaa1161006d578063f135baaa14610602578063f2fde38b14610621578063f3cd914c14610640578063f5298aca1461065f578063fe99049a1461067e575f80fd5b8063a58411941461056c578063b6363cf21461058b578063dbd035ff146105c4578063f02de3b2146105e3575f80fd5b80638161b874116100d85780638161b874146104cd5780638da5cb5b146104ec57806397e8cd4e146105225780639bf6645f1461054d575f80fd5b80635a6bcfda14610429578063695c5bf51461045d5780637e87ce7d1461048f57806380f0b44c146104ae575f80fd5b80632d7713891161017e57806348c894911161014e57806348c894911461038357806352759651146103af578063558a7297146103ce578063598af9e7146103ed575f80fd5b80632d7713891461030657806335fd631a146103255780633dd45adb14610351578063426a849314610364575f80fd5b806311da60b4116101b957806311da60b4146102a1578063156e29f6146102a95780631e2eaeaf146102c8578063234266d7146102e7575f80fd5b8062fdd58e146101e957806301ffc9a714610232578063095bcdb6146102615780630b0d9c0914610280575b5f80fd5b3480156101f4575f80fd5b5061021f61020336600461429e565b600460209081525f928352604080842090915290825290205481565b6040519081526020015b60405180910390f35b34801561023d575f80fd5b5061025161024c3660046142c8565b61069d565b6040519015158152602001610229565b34801561026c575f80fd5b5061025161027b3660046142ef565b6106d3565b34801561028b575f80fd5b5061029f61029a366004614321565b61077a565b005b61021f6107cb565b3480156102b4575f80fd5b5061029f6102c33660046142ef565b6107fd565b3480156102d3575f80fd5b5061021f6102e236600461435f565b610848565b3480156102f2575f80fd5b5061021f6103013660046144de565b610852565b348015610311575f80fd5b5061029f610320366004614542565b610930565b348015610330575f80fd5b5061034461033f36600461455d565b6109c6565b604051610229919061457d565b61021f61035f366004614542565b610a03565b34801561036f575f80fd5b5061025161037e3660046142ef565b610a35565b34801561038e575f80fd5b506103a261039d3660046145bf565b610a99565b60405161022991906145fd565b3480156103ba575f80fd5b5061029f6103c9366004614632565b610b5c565b3480156103d9575f80fd5b506102516103e8366004614673565b610bcb565b3480156103f8575f80fd5b5061021f610407366004614321565b600560209081525f938452604080852082529284528284209052825290205481565b348015610434575f80fd5b5061044861044336600461469d565b610c3a565b60408051928352602083019190915201610229565b348015610468575f80fd5b5061047c61047736600461473f565b610dd9565b60405160029190910b8152602001610229565b34801561049a575f80fd5b5061029f6104a9366004614632565b610fc7565b3480156104b9575f80fd5b5061029f6104c836600461429e565b611079565b3480156104d8575f80fd5b5061021f6104e7366004614321565b6110e6565b3480156104f7575f80fd5b505f5461050a906001600160a01b031681565b6040516001600160a01b039091168152602001610229565b34801561052d575f80fd5b5061021f61053c366004614542565b60016020525f908152604090205481565b348015610558575f80fd5b50610344610567366004614786565b611199565b348015610577575f80fd5b5061029f610586366004614542565b6111d2565b348015610596575f80fd5b506102516105a53660046147f5565b600360209081525f928352604080842090915290825290205460ff1681565b3480156105cf575f80fd5b506103446105de366004614786565b611231565b3480156105ee575f80fd5b5060025461050a906001600160a01b031681565b34801561060d575f80fd5b5061021f61061c36600461435f565b611268565b34801561062c575f80fd5b5061029f61063b366004614542565b611272565b34801561064b575f80fd5b5061021f61065a36600461482c565b611304565b34801561066a575f80fd5b5061029f6106793660046142ef565b61144a565b348015610689575f80fd5b506102516106983660046148ca565b611495565b5f6301ffc9a760e01b6001600160e01b0319831614806106cd5750630f632fb360e01b6001600160e01b03198316145b92915050565b335f9081526004602090815260408083208584529091528120805483919083906106fe908490614921565b90915550506001600160a01b0384165f90815260046020908152604080832086845290915281208054849290610735908490614934565b909155505060408051338082526020820185905285926001600160a01b038816925f80516020614dc283398151915291015b60405180910390a45060015b9392505050565b5f80516020614de28339815191525c61079d5761079d6354e3ca0d60e01b6115f4565b6107b2836107aa836115fc565b5f033361161c565b6107c66001600160a01b038416838361166f565b505050565b5f5f80516020614de28339815191525c6107ef576107ef6354e3ca0d60e01b6115f4565b6107f833611705565b905090565b5f80516020614de28339815191525c610820576108206354e3ca0d60e01b6115f4565b8161082e816107aa846115fc565b610842846001600160a01b038316846117bb565b50505050565b5f81545f5260205ff35b5f5f80516020614de28339815191525c610876576108766354e3ca0d60e01b6115f4565b61087e61182d565b60a086205f8181526006602052604090206108988161186f565b60808801516108b4906001600160a01b03168989898989611890565b6108bf81888861190d565b92506108cc8884336119b0565b6040805188815260208101889052339184917f29ef05caaff9404b7cb6d1c0e9bbae9eaa7ab2541feba1a9c4248594c08156cb910160405180910390a36080880151610925906001600160a01b031689898989896119d8565b505095945050505050565b5f546001600160a01b0316331461097d5760405162461bcd60e51b815260206004820152600c60248201526b15539055551213d49256915160a21b60448201526064015b60405180910390fd5b600280546001600160a01b0319166001600160a01b0383169081179091556040517fb4bd8ef53df690b9943d3318996006dbb82a25f54719d8c8035b516a2a5b8acc905f90a250565b6060604051808360051b6020835284602084015260408301925080830190505b855483526020830192506001860195508083106109e65781810382f35b5f5f80516020614de28339815191525c610a2757610a276354e3ca0d60e01b6115f4565b6106cd82611705565b919050565b335f8181526005602090815260408083206001600160a01b03881680855290835281842087855290925280832085905551919285927fb3fd5071835887567a0671151121894ddccc2842f1d10bedad13e0d17cace9a7906107679087815260200190565b60605f80516020614de28339815191525c15610abf57610abf6328486b6360e11b6115f4565b610ac7611a4a565b6040516348eeb9a360e11b815233906391dd734690610aec908690869060040161496f565b5f604051808303815f875af1158015610b07573d5f803e3d5ffd5b505050506040513d5f823e601f3d908101601f19168201604052610b2e9190810190614982565b90505f80516020614e028339815191525c15610b5457610b54635212cba160e01b6115f4565b6106cd611a5d565b604082015162ffffff1662800000141580610b8d575081608001516001600160a01b0316336001600160a01b031614155b15610ba257610ba26330d2164160e01b6115f4565b610bb08162ffffff16611a6f565b60a082205f8181526006602052604090206107c69083611a95565b335f8181526003602090815260408083206001600160a01b038716808552908352818420805460ff191687151590811790915591519182529293917fceb576d9f15e4e200fdb5096d64d5dfd667e16def20c1eefd14256d8e3faa267910160405180910390a350600192915050565b5f805f80516020614de28339815191525c610c5f57610c5f6354e3ca0d60e01b6115f4565b610c6761182d565b60a086205f818152600660205260409020610c818161186f565b6080880151610c9c906001600160a01b031689898989611ab0565b5f610d036040518060c00160405280336001600160a01b031681526020018a5f015160020b81526020018a6020015160020b8152602001610ce08b60400151611bb2565b600f0b81526060808d015160020b60208301528b01516040909101528390611bce565b94509050610d118185611f46565b94505050336001600160a01b0316817ff208f4912782fd25c7f114ca3723a2d5dd6f3bcc3ac8db5af63baa85f711d5ec885f015189602001518a604001518b60600151604051610d829493929190600294850b81529290930b60208301526040820152606081019190915260800190565b60405180910390a360808701515f90610da9906001600160a01b0316898987878b8b611f79565b90945090508015610dc357610dc388828a608001516119b0565b610dce8885336119b0565b505094509492505050565b5f610de261182d565b6060850151617fff60029190910b1315610e0d576060850151610e0d906316e0049f60e31b9061209e565b600160020b856060015160020b1215610e37576060850151610e3790631d3d20b160e31b9061209e565b845160208601516001600160a01b03908116911610610e695784516020860151610e69916306e6c98360e41b916120ad565b610e8d856040015186608001516001600160a01b03166120d690919063ffffffff16565b610ea8576080850151610ea890630732d7b560e51b90612197565b5f610ebb866040015162ffffff166121ac565b6080870151909150610ed9906001600160a01b0316878787876121d1565b60a086205f610ee788612242565b5f838152600660205260409020909150610f039088838661232b565b6080890151909450610f22906001600160a01b03168989878a8a61238a565b87602001516001600160a01b0316885f01516001600160a01b0316837fdd466e674ea557f56295e2d0218a125ea4b4f0f6f3307b95f85e6110838d64388b604001518c606001518d608001518d8b604051610fb495949392919062ffffff959095168552600293840b60208601526001600160a01b03928316604086015291166060840152900b608082015260a00190565b60405180910390a4505050949350505050565b6002546001600160a01b03163314610fe957610fe96348f5c3ed60e01b6115f4565b6103e9610fff821610623e900062fff000831610166110185761101863a7abe2f760e01b62ffffff8316612197565b60a0822061103a82611034835f90815260066020526040902090565b906123fd565b60405162ffffff8316815281907fe9c42593e71f84403b84352cd168d693e2c9fcd1fdbcc3feb21d92b43e6696f99060200160405180910390a2505050565b5f80516020614de28339815191525c61109c5761109c6354e3ca0d60e01b6115f4565b335f9081526001600160a01b038316602052604081205c906110bd836115fc565b90508181600f0b146110d9576110d963bda73abf60e01b6115f4565b61084284825f033361161c565b6002545f906001600160a01b0316331461110a5761110a6348f5c3ed60e01b6115f4565b5f80516020614de28339815191525c1561112e5761112e631f2fa7eb60e11b6115f4565b811561113a5781611153565b6001600160a01b0383165f908152600160205260409020545b6001600160a01b0384165f9081526001602052604081208054929350839290919061117f908490614921565b9091555061077390506001600160a01b038416858361166f565b606060405180602082528360208301526040820191508360051b8201855b80355c8452602093840193018184106111b7575b5081810382f35b5f80516020614de28339815191525c6111f5576111f56354e3ca0d60e01b6115f4565b6001600160a01b03811661120e5761120b612412565b50565b5f611221826001600160a01b0316612437565b905061122d82826124b3565b5050565b606060405180602082528360208301526040820191508360051b8201855b803554845260209384019301818410156111cb5761124f565b5f815c5f5260205ff35b5f546001600160a01b031633146112ba5760405162461bcd60e51b815260206004820152600c60248201526b15539055551213d49256915160a21b6044820152606401610974565b5f80546001600160a01b0319166001600160a01b0383169081178255604051909133917f8be0079c531659141344cd1fd0a4f28419497f9722a3daafe3b4186f6b6457e09190a350565b5f5f80516020614de28339815191525c611328576113286354e3ca0d60e01b6115f4565b61133061182d565b83602001515f0361134b5761134b63be8b850760e01b6115f4565b60a085205f8181526006602052604090206113658161186f565b60808701515f9081908190611386906001600160a01b03168b8b8b8b612506565b8093508195508294505050506113f584866040518060a001604052808681526020018e6060015160020b81526020018d5f0151151581526020018d604001516001600160a01b031681526020018562ffffff168152508c5f01516113ee578d60200151612622565b8d51612622565b60808b01519096505f925061141991506001600160a01b03168a8a888b8b88612700565b909550905080156114335761143389828b608001516119b0565b61143e8986336119b0565b50505050949350505050565b5f80516020614de28339815191525c61146d5761146d6354e3ca0d60e01b6115f4565b816114818161147b846115fc565b3361161c565b610842846001600160a01b03831684612821565b5f336001600160a01b038616148015906114d257506001600160a01b0385165f90815260036020908152604080832033845290915290205460ff16155b15611542576001600160a01b0385165f90815260056020908152604080832033845282528083208684529091529020545f198114611540576115148382614921565b6001600160a01b0387165f90815260056020908152604080832033845282528083208884529091529020555b505b6001600160a01b0385165f90815260046020908152604080832086845290915281208054849290611574908490614921565b90915550506001600160a01b0384165f908152600460209081526040808320868452909152812080548492906115ab908490614934565b9091555050604080513381526020810184905284916001600160a01b0380881692908916915f80516020614dc2833981519152910160405180910390a45060015b949350505050565b805f5260045ffd5b5f6001607f1b8210611618576116186393dafdf160e01b6115f4565b5090565b81600f0b5f0361162b57505050565b5f806116416001600160a01b03861684866128df565b91509150805f0361165957611654612918565b611668565b815f0361166857611668612940565b5050505050565b5f6001600160a01b0384166116a3575f805f8085875af190508061169e5761169e638549db5960e01b84612968565b610842565b60405163a9059cbb60e01b81526001600160a01b038416600482015282602482015260205f6044835f895af13d15601f3d1160015f511416171691505f81525f60208201525f6040820152508061084257610842632c4b17e760e21b85612968565b5f7f27e098c505d44ec3574004bca052aabf76bd35004c182099d8c575fb238593b95c6001600160a01b03811661173e573491506117a2565b341561175457611754635876424f60e11b6115f4565b7f1e0745a7db1623981f0b2a5d4232364c00787266eb75ad546f190e6cebe9bd955c5f6117896001600160a01b038416612437565b90506117958282614921565b935061179f612412565b50505b6117b5816117af846115fc565b8561161c565b50919050565b6001600160a01b0383165f908152600460209081526040808320858452909152812080548392906117ed908490614934565b9091555050604080513381526020810183905283916001600160a01b038616915f915f80516020614dc283398151915291015b60405180910390a4505050565b306001600160a01b037f0000000000000000000000000000000000000000000000000000000000000000161461186d5761186d6306c4a1c760e11b6115f4565b565b80546001600160a01b03165f0361120b5761120b63486aa30760e01b6115f4565b85336001600160a01b03821614611904576020871615611904576119023387878787876040516024016118c896959493929190614a57565b60408051601f198184030181529190526020810180516001600160e01b0316635b54587d60e11b1790526001600160a01b0389169061299b565b505b50505050505050565b60038301545f906001600160801b03168082036119345761193463a74f97ab60e01b6115f4565b611962611940856115fc565b5f0361194b856115fc565b5f0360809190911b6001600160801b039091161790565b91508315611986576001850180546001600160801b038316600160801b8702040190555b82156119a8576002850180546001600160801b038316600160801b8602040190555b509392505050565b82516119c6906119c08460801d90565b8361161c565b6107c683602001516119c084600f0b90565b85336001600160a01b0382161461190457601087161561190457611902338787878787604051602401611a1096959493929190614a57565b60408051601f198184030181529190526020810180516001600160e01b031663e1b4af6960e01b1790526001600160a01b0389169061299b565b60015f80516020614de28339815191525d565b5f5f80516020614de28339815191525d565b620f424062ffffff8216111561120b5761120b631400211360e01b62ffffff8316612197565b611a9e8261186f565b8154611aaa9082612a2c565b90915550565b84336001600160a01b03821614611baa575f8460400151138015611ad75750610800861615155b15611b3857611b323386868686604051602401611af8959493929190614aa1565b60408051601f198184030181529190526020810180516001600160e01b031663259982e560e01b1790526001600160a01b0388169061299b565b50611baa565b5f846040015113158015611b4f5750610200861615155b15611baa576119043386868686604051602401611b70959493929190614aa1565b60408051601f198184030181529190526020810180516001600160e01b031663021d0ee760e41b1790526001600160a01b0388169061299b565b505050505050565b80600f81900b8114610a3057610a306393dafdf160e01b6115f4565b6060810151602082015160408301515f9283929091611bed8282612a47565b604080516080810182525f80825260208201819052918101829052606081019190915283600f0b5f14611d3057611c268884865f612aa7565b6001600160801b0316602083015215158152611c458883866001612aa7565b6001600160801b03166060830152151560408201525f600f85900b12611cf55760808701515f9060020b620d89e71981810783139082900503620d89e891909105036001016001600160801b03049050806001600160801b031682602001516001600160801b03161115611cc457611cc463b8e3c38560e01b8561209e565b806001600160801b031682606001516001600160801b03161115611cf357611cf363b8e3c38560e01b8461209e565b505b805115611d11576080870151611d119060058a01908590612b68565b806040015115611d30576080870151611d309060058a01908490612b68565b5f80611d3d8a8686612bba565b8a5160a08c015160408051602681019290925260068083018a9052600383018b9052928252603a600c8301205f838301819052602080850182905293819052908152928f01909152812092945090925080611d9a838a8787612c6e565b91509150611dc6611daa836115fc565b611db3836115fc565b6001600160801b031660809190911b1790565b995050505050505f84600f0b1215611e2f57805115611e0257600283810b5f90815260048a016020526040812081815560018101829055909101555b806040015115611e2f57600282810b5f90815260048a016020526040812081815560018101829055909101555b5082600f0b5f14611f3c5786545f80611e4b8360a01c60020b90565b6001600160a01b038416915091508460020b8260020b1215611e9a57611e93611e8d611e88611e7988612d27565b611e8288612d27565b8a612fdf565b611bb2565b60801b90565b9750611f38565b8360020b8260020b1215611f1357611ed1611ebb611e8883611e8288612d27565b611db3611e88611eca89612d27565b858b613017565b60038b0154909850611eec906001600160801b031687613043565b60038b0180546001600160801b0319166001600160801b0392909216919091179055611f38565b611f355f611db3611e88611f2689612d27565b611f2f89612d27565b8b613017565b97505b5050505b5050509250929050565b5f608082811d9084901d01600f83810b9085900b01611f70611f6783611bb2565b611db383611bb2565b95945050505050565b5f806001600160a01b0389163303611f9557508490505f612092565b8591505f876040015113156120245761040089161561201f5761201033898989898989604051602401611fce9796959493929190614b01565b60408051601f198184030181529190526020810180516001600160e01b03166327c18fbf60e21b17905260028b1615155b6001600160a01b038c16919061306a565b905061201c82826130ab565b91505b612092565b610100891615612092576120833389898989898960405160240161204e9796959493929190614b01565b60408051601f198184030181529190526020810180516001600160e01b0316633615df3f60e11b17905260018b161515611fff565b905061208f82826130ab565b91505b97509795505050505050565b815f528060020b60045260245ffd5b6040518381526001600160a01b03831660048201526001600160a01b0382166024820152604481fd5b5f608083161580156120ea57506008831615155b156120f657505f6106cd565b6040831615801561210957506004831615155b1561211557505f6106cd565b610400831615801561212957506002831615155b1561213557505f6106cd565b610100831615801561214957506001831615155b1561215557505f6106cd565b6001600160a01b0383161561218657613fff831615158061218157506280000062ffffff831614610773565b610773565b5062ffffff16628000001415919050565b815f526001600160a01b03811660045260245ffd5b5f6280000062ffffff8316036121c357505f919050565b6116188262ffffff16611a6f565b84336001600160a01b03821614611baa57612000861615611baa576119043386868686604051602401612208959493929190614b6f565b60408051601f198184030181529190526020810180516001600160e01b03166301a206c160e51b1790526001600160a01b0388169061299b565b6002545f906001600160a01b031615610a30575f6122614560646130cc565b9050805a101561227b5761227b630f724b8160e11b6115f4565b6002546040516001600160a01b03909116905f9061229d908690602401614bb0565b60408051601f19818403018152919052602080820180516001600160e01b031663553bfc3760e01b17815282519293505f9283929183919082888af15f513d602014909116925090508180156122f757508062ffffff1681145b801561231457506103e9610fff821610623e900062fff000831610165b61231e575f612320565b805b979650505050505050565b83545f906001600160a01b03161561234d5761234d637983c05160e01b6115f4565b61235684613107565b905061237f82612379856123736001600160a01b03891686613397565b906133b2565b90612a2c565b909455509192915050565b85336001600160a01b0382161461190457611000871615611904576119023387878787876040516024016123c396959493929190614bbe565b60408051601f198184030181529190526020810180516001600160e01b031663a910f80f60e01b1790526001600160a01b0389169061299b565b6124068261186f565b8154611aaa90826133b2565b5f7f27e098c505d44ec3574004bca052aabf76bd35004c182099d8c575fb238593b95d565b5f6001600160a01b03821661244d575047919050565b6040516370a0823160e01b81523060048201526001600160a01b038316906370a0823190602401602060405180830381865afa15801561248f573d5f803e3d5ffd5b505050506040513d601f19601f820116820180604052508101906106cd9190614c07565b6001600160a01b0382167f27e098c505d44ec3574004bca052aabf76bd35004c182099d8c575fb238593b95d807f1e0745a7db1623981f0b2a5d4232364c00787266eb75ad546f190e6cebe9bd955d5050565b60208301515f806001600160a01b0388163303612525575f9150612617565b6080881615612617575f61257b89338a8a8a8a60405160240161254c959493929190614c1e565b60408051601f198184030181529190526020810180516001600160e01b03166315d7892d60e21b17905261299b565b9050805160601461259657612596631e048e1d60e01b6115f4565b604088015162ffffff1662800000036125b157606081015191505b600889161561261557604081015192505f6125cc8460801d90565b905080600f0b5f14612613575f85126125e9600f83900b87614c77565b9550806125f8575f86126125fc565b5f86135b1561261157612611637d05b8eb60e11b6115f4565b505b505b505b955095509592505050565b5f8080808061263189886133cd565b93509350935093505f83111561265f576001600160a01b0386165f9081526001602052604090208054840190555b33887f40e9cecb9f5f1f1c5b9c97dec2917b7ee92e57ba5563708daca94dd84ad7112f61268c8760801d90565b61269688600f0b90565b85516040808801516020808a01518351600f97880b81529590960b908501526001600160a01b03909216908301526001600160801b0316606082015260029190910b608082015262ffffff861660a082015260c00160405180910390a35091979650505050505050565b5f806001600160a01b038916330361271c57508490505f612092565b5f6127278460801d90565b90505f61273485600f0b90565b905060408b16156127ae576127a1611e88338c8c8c8c8c60405160240161276096959493929190614c9e565b60408051601f198184030181529190526020810180516001600160e01b031663b47b2fb160e01b17905260048e1615156001600160a01b038f16919061306a565b6127ab9082614cfe565b90505b5f81600f0b5f1415806127c4575082600f0b5f14155b1561280f57895160208b01515f13901515146127ef576001600160801b038316608083901b17612800565b6001600160801b038216608084901b175b905061280c89826130ab565b98505b979b979a509698505050505050505050565b336001600160a01b038416811480159061286057506001600160a01b038085165f9081526003602090815260408083209385168352929052205460ff16155b156128d4576001600160a01b038085165f9081526005602090815260408083209385168352928152828220868352905220545f1981146128d2576128a48382614921565b6001600160a01b038087165f9081526005602090815260408083209387168352928152828220888352905220555b505b610842848484613a19565b6001600160a01b038281165f90815290841660205260408120805c919061290a600f85900b84614c77565b915081815d50935093915050565b5f80516020614e028339815191525c600181039050805f80516020614e028339815191525d50565b5f80516020614e028339815191525c600181019050805f80516020614e028339815191525d50565b3d60405183815282600482015260406024820152816044820152815f606483013e602080601f8401040260640191508181fd5b60605f805f8451602086015f885af19050806129c2576129c263319d54c360e01b85612968565b6040519150601f19603f3d011682016040523d82523d5f602084013e602082511080612a10575060208301516001600160e01b031916612a03836020015190565b6001600160e01b03191614155b15612a2557612a25631e048e1d60e01b6115f4565b5092915050565b60d01b62ffffff60d01b1662ffffff60d01b19919091161790565b8060020b8260020b12612a6657612a6663c4433ed560e01b8383613a82565b620d89e719600283900b1215612a8757612a8763d5e2f7ab60e01b8361209e565b620d89e8600282900b131561122d5761122d63035aeeff60e31b8261209e565b600283900b5f908152600485016020526040812080548291906001600160801b03811690600160801b9004600f0b612adf8288613043565b6001600160801b03808216159084168015919091141596509094505f03612b2957885460a01c60020b60020b8860020b13612b29576001808a0154908401556002808a0154908401555b5f86612b3e57612b398883614cfe565b612b48565b612b488883614d2b565b90508060801b6001600160801b0386161784555050505094509492505050565b600291820b910b80820715612b955760405163d4d8f3e681528260208201528160408201526044601c8201fd5b80820591508160081d5f528260205260405f20600160ff84161b815418815550505050565b600282810b5f81815260048601602052604080822085850b83529082208754929485949293919260a09290921c900b90811215612c10578160010154836001015403945081600201548360020154039350612c63565b8560020b8160020b12612c3c578260010154826001015403945082600201548260020154039350612c63565b81600101548360010154896001015403039450816002015483600201548960020154030393505b505050935093915050565b83545f9081906001600160801b0316600f86900b8203612cad57806001600160801b03165f03612ca857612ca8632bbfae4960e21b6115f4565b612cd3565b612cb78187613043565b87546001600160801b0319166001600160801b03919091161787555b612cf187600101548603826001600160801b0316600160801b613a9f565b9250612d1187600201548503826001600160801b0316600160801b613a9f565b6001880195909555505060029094015591929050565b60020b5f60ff82901d80830118620d89e8811115612d5057612d506345c3193d60e11b8461209e565b7001fffcb933bd6fad37aa2d162d1a5940016001821602600160801b186002821615612d8c576ffff97272373d413259a46990580e213a0260801c5b6004821615612dab576ffff2e50f5f656932ef12357cf3c7fdcc0260801c5b6008821615612dca576fffe5caca7e10e4e61c3624eaa0941cd00260801c5b6010821615612de9576fffcb9843d60f6159c9db58835c9266440260801c5b6020821615612e08576fff973b41fa98c081472e6896dfb254c00260801c5b6040821615612e27576fff2ea16466c96a3843ec78b326b528610260801c5b6080821615612e46576ffe5dee046a99a2a811c461f1969c30530260801c5b610100821615612e66576ffcbe86c7900a88aedcffc83b479aa3a40260801c5b610200821615612e86576ff987a7253ac413176f2b074cf7815e540260801c5b610400821615612ea6576ff3392b0822b70005940c7a398e4b70f30260801c5b610800821615612ec6576fe7159475a2c29b7443b29c7fa6e889d90260801c5b611000821615612ee6576fd097f3bdfd2022b8845ad8f792aa58250260801c5b612000821615612f06576fa9f746462d870fdf8a65dc1f90e061e50260801c5b614000821615612f26576f70d869a156d2a1b890bb3df62baf32f70260801c5b618000821615612f46576f31be135f97d08fd981231505542fcfa60260801c5b62010000821615612f67576f09aa508b5b7a84e1c677de54f3e99bc90260801c5b62020000821615612f87576e5d6af8dedb81196699c329225ee6040260801c5b62040000821615612fa6576d2216e584f5fa1ea926041bedfe980260801c5b62080000821615612fc3576b048a170391f7dc42444e8fa20260801c5b5f841315612fcf575f19045b63ffffffff0160201c9392505050565b5f8082600f0b1261300657612fff612ffa8585856001613b3b565b613bf3565b5f036115ec565b6115ec612ffa8585855f035f613b3b565b5f8082600f0b1261303257612fff612ffa8585856001613c0c565b6115ec612ffa8585855f035f613c0c565b6001600160801b038216600f82900b01608081901c156106cd576393dafdf15f526004601cfd5b5f80613076858561299b565b905082613086575f915050610773565b805160401461309f5761309f631e048e1d60e01b6115f4565b60400151949350505050565b5f608082811d9084901d03600f83810b9085900b03611f70611f6783611bb2565b5f6127108211156130f057604051636f5500f360e11b815260040160405180910390fd5b6127106130fd8385614d58565b6107739190614d83565b5f73fffd8963efd1fc6a506488495d951d51639616826401000276a21983016001600160a01b03161115613146576131466318521d4960e21b83612197565b640100000000600160c01b03602083901b16805f61316382613c58565b60ff1690506080811061317e57607f810383901c9150613188565b80607f0383901b91505b908002607f81811c60ff83811c9190911c800280831c81831c1c800280841c81841c1c800280851c81851c1c800280861c81861c1c800280871c81871c1c800280881c81881c1c800280891c81891c1c8002808a1c818a1c1c8002808b1c818b1c1c8002808c1c818c1c1c8002808d1c818d1c1c8002808e1c9c81901c9c909c1c80029c8d901c9e9d607f198f0160401b60c09190911c678000000000000000161760c19b909b1c674000000000000000169a909a1760c29990991c672000000000000000169890981760c39790971c671000000000000000169690961760c49590951c670800000000000000169490941760c59390931c670400000000000000169290921760c69190911c670200000000000000161760c79190911c670100000000000000161760c89190911c6680000000000000161760c99190911c6640000000000000161760ca9190911c6620000000000000161760cb9190911c6610000000000000161760cc9190911c6608000000000000161760cd9190911c66040000000000001617693627a301d71055774c8581026f028f6481ab7f045a5af012a19d003aa9198101608090811d906fdb2df09e81959a81455e260799a0632f8301901d600281810b9083900b1461338857886001600160a01b031661336d82612d27565b6001600160a01b03161115613382578161338a565b8061338a565b815b9998505050505050505050565b60a01b62ffffff60a01b1662ffffff60a01b19919091161790565b60b81b62ffffff60b81b1662ffffff60b81b19919091161790565b604080516060810182525f8082526020820181905291810182905281908190855460408601515f8161340757610fff60c484901c16613411565b610fff60b884901c165b88516001600160a01b038516865261ffff9190911691505f60a085901c60020b60020b602087015260038b01546001600160801b0316604087015260808a01515f90624000001661346b5760d086901c62ffffff1661347d565b61347d8b6080015162ffffff16613ce2565b905083156134ab57620f4240610fff851662ffffff83168181028381061515939004929092019101036134ad565b805b975050620f42408762ffffff16106134d85789515f12156134d8576134d8634b10312360e11b6115f4565b89515f036134f0575f80985098505050505050613a10565b831561356d5760608a01516001600160a01b0386811691161061352f5761352f6001600160a01b0386165b60608c0151637c9c6e8f60e01b91906120ad565b6401000276a36001600160a01b03168a606001516001600160a01b0316116135685760608a015161356890639e4d7cc760e01b90612197565b6135de565b60608a01516001600160a01b03868116911611613596576135966001600160a01b03861661351b565b73fffd8963efd1fc6a506488495d951d5263988d266001600160a01b03168a606001516001600160a01b0316106135de5760608a01516135de90639e4d7cc760e01b90612197565b60408051610100810182525f80825260208201819052918101829052606081018290526080810182905260a0810182905260c0810182905260e08101919091528461362d578b60020154613633565b8b600101545b60e08201525b82158061365e57508a606001516001600160a01b0316875f01516001600160a01b0316145b61392b5786516001600160a01b03168152602080880151908c01516136889160058f019188613cf1565b1515604083015260020b60208201819052620d89e719126136ae57620d89e71960208201525b620d89e860020b816020015160020b126136cc57620d89e860208201525b6136d98160200151612d27565b6001600160a01b0390811660608381018290528951908e0151613716939192911680821891811160018a161891909102188960400151868c613dde565b60c085015260a084015260808301526001600160a01b031687528a515f1215613772576137468160a00151613bf3565b830392506137618160c001518260800151612ffa9190614934565b61376b9083614da2565b91506137a3565b6137858160c00151826080015101613bf3565b830192506137968160a00151613bf3565b6137a09083614c77565b91505b83156137df575f620f4240858360c0015184608001510102816137c8576137c8614d6f565b60c084018051929091049182900390529990990198505b60408701516001600160801b03161561381f576138138160c00151600160801b89604001516001600160801b031691020490565b60e08201805190910190525b80606001516001600160a01b0316875f01516001600160a01b031603613905578060400151156138e0575f808661385f578d600101548360e0015161386a565b8260e001518e600201545b915091505f6138b58f85602001518585600292830b5f90815260049094016020526040909320600181018054909203909155908101805490920390915554600160801b9004600f0b90565b905087156138c0575f035b6138ce8a6040015182613043565b6001600160801b031660408b01525050505b846138ef5780602001516138f8565b60018160200151035b60020b6020880152613639565b805187516001600160a01b039081169116146139265786516138f890613107565b613639565b8651602088015161395b9190613942908990613397565b6001600160a01b0319166001600160a01b039091161790565b8c55604087015160038d01546001600160801b039081169116146139a057604087015160038d0180546001600160801b0319166001600160801b039092169190911790555b846139b45760e081015160028d01556139bf565b60e081015160018d01555b8a515f13851515146139ec576139e56139d783611bb2565b611db3858e5f015103611bb2565b9950613a09565b613a066139fd848d5f015103611bb2565b611db384611bb2565b99505b5050505050505b92959194509250565b6001600160a01b0383165f90815260046020908152604080832085845290915281208054839290613a4b908490614921565b9091555050604080513381526020810183905283915f916001600160a01b038716915f80516020614dc28339815191529101611820565b6040518381528260020b60048201528160020b6024820152604481fd5b5f838302815f1985870982811083820303915050808411613abe575f80fd5b805f03613ad057508290049050610773565b5f848688095f868103871696879004966002600389028118808a02820302808a02820302808a02820302808a02820302808a02820302808a02909103029181900381900460010186841190950394909402919094039290920491909117919091029150509392505050565b5f836001600160a01b0316856001600160a01b03161115613b5a579293925b6001600160a01b038516613b745762bfc9215f526004601cfd5b600160601b600160e01b03606084901b166001600160a01b038686031683613bc757866001600160a01b0316613bb48383896001600160a01b0316613a9f565b81613bc157613bc1614d6f565b04612320565b612320613bde8383896001600160a01b0316613f41565b886001600160a01b0316808204910615150190565b805f811215610a3057610a306393dafdf160e01b6115f4565b5f6001600160a01b038481169086160360ff81901d90810118600160601b6001600160801b038516613c3f818484613a9f565b9350845f83858409111684019350505050949350505050565b5f808211613c64575f80fd5b507f0706060506020500060203020504000106050205030304010505030400000000601f6f8421084210842108cc6318c6db6d54be6001600160801b03841160071b84811c6001600160401b031060061b1784811c63ffffffff1060051b1784811c61ffff1060041b1784811c60ff1060031b1793841c1c161a1790565b62bfffff8116610a3081611a6f565b5f80600284810b9086900b8181078313919005038315613d7057600281900b60081d600181900b5f908152602089905260409020545f1960ff808516908190039190911c918216801515955090919085613d5257888360ff16860302613d65565b88613d5c82613c58565b840360ff168603025b965050505050613dd4565b6001908101600281900b60081d80830b5f90815260208a905260409020545f1960ff841694851b011990811680151595509293919285613dba57888360ff0360ff16860102613dcd565b8883613dc583613f71565b0360ff168601025b9650505050505b5094509492505050565b5f80808062ffffff85166001600160a01b03808a16908b1610158288128015613eb4575f613e178a5f0385620f424003620f4240613a9f565b905082613e3057613e2b8d8d8d6001613c0c565b613e3d565b613e3d8c8e8d6001613b3b565b9650868110613e71578b9750620f42408414613e6857613e63878586620f424003613f41565b613e6a565b865b9450613e8a565b809650613e808d8c838661400b565b9750868a5f030394505b82613ea057613e9b8d898d5f613b3b565b613eac565b613eac888e8d5f613c0c565b955050613f32565b81613eca57613ec58c8c8c5f613b3b565b613ed6565b613ed68b8d8c5f613c0c565b9450848910613ee7578a9650613ef9565b889450613ef68c8b8785614059565b96505b81613f1057613f0b8c888c6001613c0c565b613f1d565b613f1d878d8c6001613b3b565b9550613f2f868485620f424003613f41565b93505b50505095509550955095915050565b5f613f4d848484613a9f565b90508180613f5d57613f5d614d6f565b838509156107735760010180610773575f80fd5b5f808211613f7d575f80fd5b507e1f0d1e100c1d070f090b19131c1706010e11080a1a141802121b15031604055f8290039091166101e07f804040554300526644320000502061067405302602000010750620017611707760fc7fb6db6db6ddddddddd34d34d349249249210842108c6318c639ce739cffffffff840260f81c161b60f71c1690811c63d76453e004601f169190911a1790565b5f6001600160801b038416156001600160a01b03861615171561403557634f2461b85f526004601cfd5b8161404c57614047858585600161409c565b611f70565b611f708585856001614187565b5f6001600160801b038416156001600160a01b03861615171561408357634f2461b85f526004601cfd5b81614094576140478585855f614187565b611f708585855f5b5f811561410c575f6001600160a01b038411156140d0576140cb84600160601b876001600160801b0316613a9f565b6140e7565b6140e76001600160801b038616606086901b614d83565b90506141046140ff826001600160a01b038916614934565b614269565b9150506115ec565b5f6001600160a01b038411156141395761413484600160601b876001600160801b0316613f41565b614156565b614156606085901b6001600160801b038716808204910615150190565b9050806001600160a01b0387161161417557634323a5555f526004601cfd5b6001600160a01b0386160390506115ec565b5f825f036141965750836115ec565b600160601b600160e01b03606085901b168215614228576001600160a01b038616848102908582816141ca576141ca614d6f565b04036141fa578181018281106141f8576141ee83896001600160a01b031683613f41565b93505050506115ec565b505b5061410481856142136001600160a01b038a1683614d83565b61421d9190614934565b808204910615150190565b6001600160a01b03861684810290858204148183111661424f5763f5c787f15f526004601cfd5b8082036141ee6140ff846001600160a01b038b1684613f41565b806001600160a01b0381168114610a3057610a306393dafdf160e01b6115f4565b6001600160a01b038116811461120b575f80fd5b5f80604083850312156142af575f80fd5b82356142ba8161428a565b946020939093013593505050565b5f602082840312156142d8575f80fd5b81356001600160e01b031981168114610773575f80fd5b5f805f60608486031215614301575f80fd5b833561430c8161428a565b95602085013595506040909401359392505050565b5f805f60608486031215614333575f80fd5b833561433e8161428a565b9250602084013561434e8161428a565b929592945050506040919091013590565b5f6020828403121561436f575f80fd5b5035919050565b634e487b7160e01b5f52604160045260245ffd5b604051608081016001600160401b03811182821017156143ac576143ac614376565b60405290565b604051601f8201601f191681016001600160401b03811182821017156143da576143da614376565b604052919050565b803562ffffff81168114610a30575f80fd5b8035600281900b8114610a30575f80fd5b5f60a08284031215614415575f80fd5b60405160a081016001600160401b038111828210171561443757614437614376565b60405290508082356144488161428a565b815260208301356144588161428a565b6020820152614469604084016143e2565b604082015261447a606084016143f4565b6060820152608083013561448d8161428a565b6080919091015292915050565b5f8083601f8401126144aa575f80fd5b5081356001600160401b038111156144c0575f80fd5b6020830191508360208285010111156144d7575f80fd5b9250929050565b5f805f805f61010086880312156144f3575f80fd5b6144fd8787614405565b945060a0860135935060c0860135925060e08601356001600160401b03811115614525575f80fd5b6145318882890161449a565b969995985093965092949392505050565b5f60208284031215614552575f80fd5b81356107738161428a565b5f806040838503121561456e575f80fd5b50508035926020909101359150565b602080825282518282018190525f918401906040840190835b818110156145b4578351835260209384019390920191600101614596565b509095945050505050565b5f80602083850312156145d0575f80fd5b82356001600160401b038111156145e5575f80fd5b6145f18582860161449a565b90969095509350505050565b602081525f82518060208401528060208501604085015e5f604082850101526040601f19601f83011684010191505092915050565b5f8060c08385031215614643575f80fd5b61464d8484614405565b915061465b60a084016143e2565b90509250929050565b80358015158114610a30575f80fd5b5f8060408385031215614684575f80fd5b823561468f8161428a565b915061465b60208401614664565b5f805f808486036101408112156146b2575f80fd5b6146bc8787614405565b94506080609f19820112156146cf575f80fd5b506146d861438a565b6146e460a087016143f4565b81526146f260c087016143f4565b602082015260e08601356040820152610100860135606082015292506101208501356001600160401b03811115614727575f80fd5b6147338782880161449a565b95989497509550505050565b5f805f8060e08587031215614752575f80fd5b61475c8686614405565b935060a085013561476c8161428a565b925060c08501356001600160401b03811115614727575f80fd5b5f8060208385031215614797575f80fd5b82356001600160401b038111156147ac575f80fd5b8301601f810185136147bc575f80fd5b80356001600160401b038111156147d1575f80fd5b8560208260051b84010111156147e5575f80fd5b6020919091019590945092505050565b5f8060408385031215614806575f80fd5b82356148118161428a565b915060208301356148218161428a565b809150509250929050565b5f805f80848603610120811215614841575f80fd5b61484b8787614405565b94506060609f198201121561485e575f80fd5b50604051606081016001600160401b038111828210171561488157614881614376565b60405261489060a08701614664565b815260c0860135602082015260e08601356148aa8161428a565b604082015292506101008501356001600160401b03811115614727575f80fd5b5f805f80608085870312156148dd575f80fd5b84356148e88161428a565b935060208501356148f88161428a565b93969395505050506040820135916060013590565b634e487b7160e01b5f52601160045260245ffd5b818103818111156106cd576106cd61490d565b808201808211156106cd576106cd61490d565b81835281816020850137505f828201602090810191909152601f909101601f19169091010190565b602081525f6115ec602083018486614947565b5f60208284031215614992575f80fd5b81516001600160401b038111156149a7575f80fd5b8201601f810184136149b7575f80fd5b80516001600160401b038111156149d0576149d0614376565b6149e3601f8201601f19166020016143b2565b8181528560208385010111156149f7575f80fd5b8160208401602083015e5f91810160200191909152949350505050565b80516001600160a01b03908116835260208083015182169084015260408083015162ffffff169084015260608083015160020b9084015260809182015116910152565b6001600160a01b0387168152614a706020820187614a14565b8460c08201528360e08201526101206101008201525f614a9561012083018486614947565b98975050505050505050565b6001600160a01b0386168152614aba6020820186614a14565b8351600290810b60c08301526020850151900b60e0820152604084015161010082015260608401516101208201526101606101408201525f61232061016083018486614947565b6001600160a01b0388168152614b1a6020820188614a14565b8551600290810b60c08301526020870151900b60e08201526040860151610100820152606086015161012082015284610140820152836101608201526101a06101808201525f61338a6101a083018486614947565b6001600160a01b0386168152614b886020820186614a14565b6001600160a01b03841660c082015261010060e082018190525f906123209083018486614947565b60a081016106cd8284614a14565b6001600160a01b0387168152614bd76020820187614a14565b60018060a01b03851660c08201528360020b60e08201526101206101008201525f614a9561012083018486614947565b5f60208284031215614c17575f80fd5b5051919050565b6001600160a01b0386168152614c376020820186614a14565b8351151560c0820152602084015160e082015260408401516001600160a01b03166101008201526101406101208201525f61232061014083018486614947565b8082018281125f831280158216821582161715614c9657614c9661490d565b505092915050565b6001600160a01b0387168152614cb76020820187614a14565b8451151560c0820152602085015160e082015260408501516001600160a01b0316610100820152836101208201526101606101408201525f614a9561016083018486614947565b600f81810b9083900b0160016001607f1b03811360016001607f1b0319821217156106cd576106cd61490d565b600f82810b9082900b0360016001607f1b0319811260016001607f1b03821317156106cd576106cd61490d565b80820281158282048414176106cd576106cd61490d565b634e487b7160e01b5f52601260045260245ffd5b5f82614d9d57634e487b7160e01b5f52601260045260245ffd5b500490565b8181035f831280158383131683831282161715612a2557612a2561490d56fe1b3d7edb2e9c0b0e7c525b20aaaef0f5940d2ed71663c7d39266ecafac728859c090fc4683624cfc3884e9d8de5eca132f2d0ec062aff75d43c0465d5ceeab237d4b3164c6e45b97e7d87b7125a44c5828d005af88f9d751cfd78729c5d99a0ba26469706673582212206775e403ae5cd33fcadbd9aad50d7b91eda2bc23f1109ddf4d82d9f48d3216aa64736f6c634300081a0033","linkReferences":{}},"methodIdentifiers":{"allowance(address,address,uint256)":"598af9e7","approve(address,uint256,uint256)":"426a8493","balanceOf(address,uint256)":"00fdd58e","burn(address,uint256,uint256)":"f5298aca","clear(address,uint256)":"80f0b44c","collectProtocolFees(address,address,uint256)":"8161b874","donate((address,address,uint24,int24,address),uint256,uint256,bytes)":"234266d7","extsload(bytes32)":"1e2eaeaf","extsload(bytes32,uint256)":"35fd631a","extsload(bytes32[])":"dbd035ff","exttload(bytes32)":"f135baaa","exttload(bytes32[])":"9bf6645f","initialize((address,address,uint24,int24,address),uint160,bytes)":"695c5bf5","isOperator(address,address)":"b6363cf2","mint(address,uint256,uint256)":"156e29f6","modifyLiquidity((address,address,uint24,int24,address),(int24,int24,int256,bytes32),bytes)":"5a6bcfda","owner()":"8da5cb5b","protocolFeeController()":"f02de3b2","protocolFeesAccrued(address)":"97e8cd4e","setOperator(address,bool)":"558a7297","setProtocolFee((address,address,uint24,int24,address),uint24)":"7e87ce7d","setProtocolFeeController(address)":"2d771389","settle()":"11da60b4","settleFor(address)":"3dd45adb","supportsInterface(bytes4)":"01ffc9a7","swap((address,address,uint24,int24,address),(bool,int256,uint160),bytes)":"f3cd914c","sync(address)":"a5841194","take(address,address,uint256)":"0b0d9c09","transfer(address,uint256,uint256)":"095bcdb6","transferFrom(address,address,uint256,uint256)":"fe99049a","transferOwnership(address)":"f2fde38b","unlock(bytes)":"48c89491","updateDynamicLPFee((address,address,uint24,int24,address),uint24)":"52759651"},"id":41}