{"abi":[{"type":"constructor","inputs":[{"name":"_poolManager","type":"address","internalType":"contract IPoolManager"},{"name":"erc","type":"address","internalType":"address"}],"stateMutability":"nonpayable"},{"type":"function","name":"afterAddLiquidity","inputs":[{"name":"","type":"address","internalType":"address"},{"name":"","type":"tuple","internalType":"struct PoolKey","components":[{"name":"currency0","type":"address","internalType":"Currency"},{"name":"currency1","type":"address","internalType":"Currency"},{"name":"fee","type":"uint24","internalType":"uint24"},{"name":"tickSpacing","type":"int24","internalType":"int24"},{"name":"hooks","type":"address","internalType":"contract IHooks"}]},{"name":"","type":"tuple","internalType":"struct IPoolManager.ModifyLiquidityParams","components":[{"name":"tickLower","type":"int24","internalType":"int24"},{"name":"tickUpper","type":"int24","internalType":"int24"},{"name":"liquidityDelta","type":"int256","internalType":"int256"},{"name":"salt","type":"bytes32","internalType":"bytes32"}]},{"name":"","type":"int256","internalType":"BalanceDelta"},{"name":"","type":"int256","internalType":"BalanceDelta"},{"name":"","type":"bytes","internalType":"bytes"}],"outputs":[{"name":"","type":"bytes4","internalType":"bytes4"},{"name":"","type":"int256","internalType":"BalanceDelta"}],"stateMutability":"nonpayable"},{"type":"function","name":"afterDonate","inputs":[{"name":"","type":"address","internalType":"address"},{"name":"","type":"tuple","internalType":"struct PoolKey","components":[{"name":"currency0","type":"address","internalType":"Currency"},{"name":"currency1","type":"address","internalType":"Currency"},{"name":"fee","type":"uint24","internalType":"uint24"},{"name":"tickSpacing","type":"int24","internalType":"int24"},{"name":"hooks","type":"address","internalType":"contract IHooks"}]},{"name":"","type":"uint256","internalType":"uint256"},{"name":"","type":"uint256","internalType":"uint256"},{"name":"","type":"bytes","internalType":"bytes"}],"outputs":[{"name":"","type":"bytes4","internalType":"bytes4"}],"stateMutability":"nonpayable"},{"type":"function","name":"afterInitialize","inputs":[{"name":"","type":"address","internalType":"address"},{"name":"key","type":"tuple","internalType":"struct PoolKey","components":[{"name":"currency0","type":"address","internalType":"Currency"},{"name":"currency1","type":"address","internalType":"Currency"},{"name":"fee","type":"uint24","internalType":"uint24"},{"name":"tickSpacing","type":"int24","internalType":"int24"},{"name":"hooks","type":"address","internalType":"contract IHooks"}]},{"name":"","type":"uint160","internalType":"uint160"},{"name":"tick","type":"int24","internalType":"int24"},{"name":"","type":"bytes","internalType":"bytes"}],"outputs":[{"name":"","type":"bytes4","internalType":"bytes4"}],"stateMutability":"nonpayable"},{"type":"function","name":"afterRemoveLiquidity","inputs":[{"name":"","type":"address","internalType":"address"},{"name":"","type":"tuple","internalType":"struct PoolKey","components":[{"name":"currency0","type":"address","internalType":"Currency"},{"name":"currency1","type":"address","internalType":"Currency"},{"name":"fee","type":"uint24","internalType":"uint24"},{"name":"tickSpacing","type":"int24","internalType":"int24"},{"name":"hooks","type":"address","internalType":"contract IHooks"}]},{"name":"","type":"tuple","internalType":"struct IPoolManager.ModifyLiquidityParams","components":[{"name":"tickLower","type":"int24","internalType":"int24"},{"name":"tickUpper","type":"int24","internalType":"int24"},{"name":"liquidityDelta","type":"int256","internalType":"int256"},{"name":"salt","type":"bytes32","internalType":"bytes32"}]},{"name":"","type":"int256","internalType":"BalanceDelta"},{"name":"","type":"int256","internalType":"BalanceDelta"},{"name":"","type":"bytes","internalType":"bytes"}],"outputs":[{"name":"","type":"bytes4","internalType":"bytes4"},{"name":"","type":"int256","internalType":"BalanceDelta"}],"stateMutability":"nonpayable"},{"type":"function","name":"afterSwap","inputs":[{"name":"","type":"address","internalType":"address"},{"name":"key","type":"tuple","internalType":"struct PoolKey","components":[{"name":"currency0","type":"address","internalType":"Currency"},{"name":"currency1","type":"address","internalType":"Currency"},{"name":"fee","type":"uint24","internalType":"uint24"},{"name":"tickSpacing","type":"int24","internalType":"int24"},{"name":"hooks","type":"address","internalType":"contract IHooks"}]},{"name":"","type":"tuple","internalType":"struct IPoolManager.SwapParams","components":[{"name":"zeroForOne","type":"bool","internalType":"bool"},{"name":"amountSpecified","type":"int256","internalType":"int256"},{"name":"sqrtPriceLimitX96","type":"uint160","internalType":"uint160"}]},{"name":"","type":"int256","internalType":"BalanceDelta"},{"name":"","type":"bytes","internalType":"bytes"}],"outputs":[{"name":"","type":"bytes4","internalType":"bytes4"},{"name":"","type":"int128","internalType":"int128"}],"stateMutability":"nonpayable"},{"type":"function","name":"afterSwapCount","inputs":[{"name":"","type":"bytes32","internalType":"PoolId"}],"outputs":[{"name":"count","type":"uint256","internalType":"uint256"}],"stateMutability":"view"},{"type":"function","name":"backdoor","inputs":[],"outputs":[],"stateMutability":"nonpayable"},{"type":"function","name":"beforeAddLiquidity","inputs":[{"name":"","type":"address","internalType":"address"},{"name":"key","type":"tuple","internalType":"struct PoolKey","components":[{"name":"currency0","type":"address","internalType":"Currency"},{"name":"currency1","type":"address","internalType":"Currency"},{"name":"fee","type":"uint24","internalType":"uint24"},{"name":"tickSpacing","type":"int24","internalType":"int24"},{"name":"hooks","type":"address","internalType":"contract IHooks"}]},{"name":"","type":"tuple","internalType":"struct IPoolManager.ModifyLiquidityParams","components":[{"name":"tickLower","type":"int24","internalType":"int24"},{"name":"tickUpper","type":"int24","internalType":"int24"},{"name":"liquidityDelta","type":"int256","internalType":"int256"},{"name":"salt","type":"bytes32","internalType":"bytes32"}]},{"name":"","type":"bytes","internalType":"bytes"}],"outputs":[{"name":"","type":"bytes4","internalType":"bytes4"}],"stateMutability":"nonpayable"},{"type":"function","name":"beforeAddLiquidityCount","inputs":[{"name":"","type":"bytes32","internalType":"PoolId"}],"outputs":[{"name":"count","type":"uint256","internalType":"uint256"}],"stateMutability":"view"},{"type":"function","name":"beforeDonate","inputs":[{"name":"","type":"address","internalType":"address"},{"name":"","type":"tuple","internalType":"struct PoolKey","components":[{"name":"currency0","type":"address","internalType":"Currency"},{"name":"currency1","type":"address","internalType":"Currency"},{"name":"fee","type":"uint24","internalType":"uint24"},{"name":"tickSpacing","type":"int24","internalType":"int24"},{"name":"hooks","type":"address","internalType":"contract IHooks"}]},{"name":"","type":"uint256","internalType":"uint256"},{"name":"","type":"uint256","internalType":"uint256"},{"name":"","type":"bytes","internalType":"bytes"}],"outputs":[{"name":"","type":"bytes4","internalType":"bytes4"}],"stateMutability":"nonpayable"},{"type":"function","name":"beforeInitialize","inputs":[{"name":"","type":"address","internalType":"address"},{"name":"","type":"tuple","internalType":"struct PoolKey","components":[{"name":"currency0","type":"address","internalType":"Currency"},{"name":"currency1","type":"address","internalType":"Currency"},{"name":"fee","type":"uint24","internalType":"uint24"},{"name":"tickSpacing","type":"int24","internalType":"int24"},{"name":"hooks","type":"address","internalType":"contract IHooks"}]},{"name":"","type":"uint160","internalType":"uint160"},{"name":"","type":"bytes","internalType":"bytes"}],"outputs":[{"name":"","type":"bytes4","internalType":"bytes4"}],"stateMutability":"view"},{"type":"function","name":"beforeRemoveLiquidity","inputs":[{"name":"","type":"address","internalType":"address"},{"name":"key","type":"tuple","internalType":"struct PoolKey","components":[{"name":"currency0","type":"address","internalType":"Currency"},{"name":"currency1","type":"address","internalType":"Currency"},{"name":"fee","type":"uint24","internalType":"uint24"},{"name":"tickSpacing","type":"int24","internalType":"int24"},{"name":"hooks","type":"address","internalType":"contract IHooks"}]},{"name":"","type":"tuple","internalType":"struct IPoolManager.ModifyLiquidityParams","components":[{"name":"tickLower","type":"int24","internalType":"int24"},{"name":"tickUpper","type":"int24","internalType":"int24"},{"name":"liquidityDelta","type":"int256","internalType":"int256"},{"name":"salt","type":"bytes32","internalType":"bytes32"}]},{"name":"","type":"bytes","internalType":"bytes"}],"outputs":[{"name":"","type":"bytes4","internalType":"bytes4"}],"stateMutability":"nonpayable"},{"type":"function","name":"beforeRemoveLiquidityCount","inputs":[{"name":"","type":"bytes32","internalType":"PoolId"}],"outputs":[{"name":"count","type":"uint256","internalType":"uint256"}],"stateMutability":"view"},{"type":"function","name":"beforeSwap","inputs":[{"name":"","type":"address","internalType":"address"},{"name":"key","type":"tuple","internalType":"struct PoolKey","components":[{"name":"currency0","type":"address","internalType":"Currency"},{"name":"currency1","type":"address","internalType":"Currency"},{"name":"fee","type":"uint24","internalType":"uint24"},{"name":"tickSpacing","type":"int24","internalType":"int24"},{"name":"hooks","type":"address","internalType":"contract IHooks"}]},{"name":"params","type":"tuple","internalType":"struct IPoolManager.SwapParams","components":[{"name":"zeroForOne","type":"bool","internalType":"bool"},{"name":"amountSpecified","type":"int256","internalType":"int256"},{"name":"sqrtPriceLimitX96","type":"uint160","internalType":"uint160"}]},{"name":"","type":"bytes","internalType":"bytes"}],"outputs":[{"name":"","type":"bytes4","internalType":"bytes4"},{"name":"","type":"int256","internalType":"BeforeSwapDelta"},{"name":"","type":"uint24","internalType":"uint24"}],"stateMutability":"nonpayable"},{"type":"function","name":"beforeSwapCount","inputs":[{"name":"","type":"bytes32","internalType":"PoolId"}],"outputs":[{"name":"count","type":"uint256","internalType":"uint256"}],"stateMutability":"view"},{"type":"function","name":"exploitable","inputs":[],"outputs":[],"stateMutability":"nonpayable"},{"type":"function","name":"getHookPermissions","inputs":[],"outputs":[{"name":"","type":"tuple","internalType":"struct Hooks.Permissions","components":[{"name":"beforeInitialize","type":"bool","internalType":"bool"},{"name":"afterInitialize","type":"bool","internalType":"bool"},{"name":"beforeAddLiquidity","type":"bool","internalType":"bool"},{"name":"afterAddLiquidity","type":"bool","internalType":"bool"},{"name":"beforeRemoveLiquidity","type":"bool","internalType":"bool"},{"name":"afterRemoveLiquidity","type":"bool","internalType":"bool"},{"name":"beforeSwap","type":"bool","internalType":"bool"},{"name":"afterSwap","type":"bool","internalType":"bool"},{"name":"beforeDonate","type":"bool","internalType":"bool"},{"name":"afterDonate","type":"bool","internalType":"bool"},{"name":"beforeSwapReturnDelta","type":"bool","internalType":"bool"},{"name":"afterSwapReturnDelta","type":"bool","internalType":"bool"},{"name":"afterAddLiquidityReturnDelta","type":"bool","internalType":"bool"},{"name":"afterRemoveLiquidityReturnDelta","type":"bool","internalType":"bool"}]}],"stateMutability":"pure"},{"type":"function","name":"poolManager","inputs":[],"outputs":[{"name":"","type":"address","internalType":"contract IPoolManager"}],"stateMutability":"view"},{"type":"function","name":"unlockCallback","inputs":[{"name":"data","type":"bytes","internalType":"bytes"}],"outputs":[{"name":"","type":"bytes","internalType":"bytes"}],"stateMutability":"nonpayable"},{"type":"error","name":"HookNotImplemented","inputs":[]},{"type":"error","name":"InvalidPool","inputs":[]},{"type":"error","name":"LockFailure","inputs":[]},{"type":"error","name":"NotPoolManager","inputs":[]},{"type":"error","name":"NotSelf","inputs":[]}],"bytecode":{"object":"0x60a060405234801561000f575f80fd5b5060405161150b38038061150b83398101604081905261002e916102db565b6001600160a01b038216608052816100453061006c565b50600480546001600160a01b0319166001600160a01b039290921691909117905550610313565b61015f8161015a604080516101c0810182525f80825260208201819052918101829052606081018290526080810182905260a0810182905260c0810182905260e08101829052610100810182905261012081018290526101408101829052610160810182905261018081018290526101a081019190915250604080516101c0810182526001808252602082018190529181018290525f606082018190526080820183905260a0820181905260c0820183905260e0820192909252610100810182905261012081018290526101408101829052610160810182905261018081018290526101a081019190915290565b610162565b50565b80511515612000831615151415806101865750602081015115156110008316151514155b8061019d5750604081015115156108008316151514155b806101b45750606081015115156104008316151514155b806101cb5750608081015115156102008316151514155b806101e2575060a081015115156101008316151514155b806101f8575060c0810151151560808316151514155b8061020e575060e0810151151560408316151514155b806102255750610100810151151560208316151514155b8061023c5750610120810151151560108316151514155b806102535750610140810151151560088316151514155b8061026a5750610160810151151560048316151514155b806102815750610180810151151560028316151514155b8061029857506101a0810151151560018316151514155b156102ae576102ae630732d7b560e51b836102b2565b5050565b815f526001600160a01b03811660045260245ffd5b6001600160a01b038116811461015f575f80fd5b5f80604083850312156102ec575f80fd5b82516102f7816102c7565b6020840151909250610308816102c7565b809150509250929050565b6080516111d96103325f395f81816103f4015261081301526111d95ff3fe608060405234801561000f575f80fd5b506004361061011c575f3560e01c80639f063efc116100a9578063c69399571161006e578063c693995714610392578063dacdbe77146103b1578063db6a9451146103d0578063dc4c90d3146103ef578063e1b4af6914610288575f80fd5b80639f063efc146101e4578063a910f80f1461023f578063b47b2fb114610252578063b6a8b0fa14610288578063c4e833ce1461029b575f80fd5b8063575e24b4116100ef578063575e24b4146101795780635c338d32146101b75780636c2bbe7e146101e45780638a020c3a1461021757806391dd73461461021f575f80fd5b806321d0ee7014610120578063259982e5146101515780632665f77d146101645780633440d82014610166575b5f80fd5b61013361012e366004610b80565b61042e565b6040516001600160e01b031990911681526020015b60405180910390f35b61013361015f366004610b80565b61047f565b005b610133610174366004610bf7565b6104cb565b61018c610187366004610c61565b610505565b604080516001600160e01b03199094168452602084019290925262ffffff1690820152606001610148565b6101d66101c5366004610cbb565b5f6020819052908152604090205481565b604051908152602001610148565b6101f76101f2366004610cd2565b61078f565b604080516001600160e01b03199093168352602083019190915201610148565b6101646107aa565b61023261022d366004610d5d565b610806565b6040516101489190610dca565b61013361024d366004610ded565b610864565b610265610260366004610e75565b61089d565b604080516001600160e01b03199093168352600f9190910b602083015201610148565b610133610296366004610ed8565b61094a565b610385604080516101c0810182525f80825260208201819052918101829052606081018290526080810182905260a0810182905260c0810182905260e08101829052610100810182905261012081018290526101408101829052610160810182905261018081018290526101a081019190915250604080516101c0810182526001808252602082018190529181018290525f606082018190526080820183905260a0820181905260c0820183905260e0820192909252610100810182905261012081018290526101408101829052610160810182905261018081018290526101a081019190915290565b6040516101489190610f32565b6101d66103a0366004610cbb565b60026020525f908152604090205481565b6101d66103bf366004610cbb565b60016020525f908152604090205481565b6101d66103de366004610cbb565b60036020525f908152604090205481565b6104167f000000000000000000000000000000000000000000000000000000000000000081565b6040516001600160a01b039091168152602001610148565b5f60038161044b61044436899003890189611065565b60a0902090565b81526020019081526020015f205f81548092919061046890611113565b9091555063021d0ee760e41b979650505050505050565b5f60028161049561044436899003890189611065565b81526020019081526020015f205f8154809291906104b290611113565b9091555063259982e560e01b979650505050505050565b565b5f6104f3604051806040016040528060068152602001656265666f726560d01b815250610964565b506301a206c160e51b95945050505050565b5f805f6105376040518060400160405280600e81526020016d6265666f726553776170202b2b2b60901b815250610964565b5f610566610548602089013561112b565b60801b60208901356fffffffffffffffffffffffffffffffff161790565b905061057d6105758260801d90565b600f0b6109aa565b61058a61057582600f0b90565b5f8061059e610444368c90038c018c611065565b81526020019081526020015f205f8154809291906105bb90611113565b91905055506105ee6040518060400160405280600c81526020016b03a3c1737b934b3b4b7101d160a51b815250326109ef565b61061d6040518060400160405280600d81526020016c036b9b39739b2b73232b9101d1609d1b815250336109ef565b61064b6040518060400160405280600d81526020016c7472616e7366657220676f676f60981b815250610964565b600480546040516323b872dd60e01b81523292810192909252306024830152670de0b6b3a764000060448301526001600160a01b0316906323b872dd906064016020604051808303815f875af11580156106a7573d5f803e3d5ffd5b505050506040513d601f19601f820116820180604052508101906106cb9190611145565b506004805460405163a9059cbb60e01b8152600292810192909252670de0b6b3a764000060248301526001600160a01b03169063a9059cbb906044016020604051808303815f875af1158015610723573d5f803e3d5ffd5b505050506040513d601f19601f820116820180604052508101906107479190611145565b506107766040518060400160405280600d81526020016c7472616e7366657220646f6e6560981b815250610964565b506315d7892d60e21b985f985088975095505050505050565b5f80604051630a85dc2960e01b815260040160405180910390fd5b6107da6040518060400160405280600e81526020016d032bc383637b4ba30b13632901d160951b815250326109ef565b6104c96040518060400160405280600a81526020016936b9b39739b2b73232b960b11b815250336109ef565b6060336001600160a01b037f000000000000000000000000000000000000000000000000000000000000000016146108515760405163570c108560e11b815260040160405180910390fd5b61085b8383610a38565b90505b92915050565b5f61088a604051806040016040528060048152602001630c4c8ccd60e21b815250610964565b5063a910f80f60e01b9695505050505050565b5f806108cd6040518060400160405280600d81526020016c030b33a32b929bbb0b81015959609d1b815250610964565b60015f6108e2610444368b90038b018b611065565b81526020019081526020015f205f8154809291906108ff90611113565b91905055506109346040518060400160405280600f81526020016e6166746572207377617020646f6e6560881b815250610964565b5063b47b2fb160e01b975f975095505050505050565b5f604051630a85dc2960e01b815260040160405180910390fd5b6109a7816040516024016109789190610dca565b60408051601f198184030181529190526020810180516001600160e01b031663104c13eb60e21b179052610ad1565b50565b6109a7816040516024016109c091815260200190565b60408051601f198184030181529190526020810180516001600160e01b0316634e0c1d1d60e01b179052610ad1565b610a348282604051602401610a0592919061116b565b60408051601f198184030181529190526020810180516001600160e01b031663319af33360e01b179052610ad1565b5050565b60605f80306001600160a01b03168585604051610a56929190611194565b5f604051808303815f865af19150503d805f8114610a8f576040519150601f19603f3d011682016040523d82523d5f602084013e610a94565b606091505b50915091508115610aa857915061085e9050565b80515f03610ac9576040516314815f4760e31b815260040160405180910390fd5b805160208201fd5b80516a636f6e736f6c652e6c6f67602083015f808483855afa5050505050565b6001600160a01b03811681146109a7575f80fd5b8035610b1081610af1565b919050565b5f60a08284031215610b25575f80fd5b50919050565b5f60808284031215610b25575f80fd5b5f8083601f840112610b4b575f80fd5b50813567ffffffffffffffff811115610b62575f80fd5b602083019150836020828501011115610b79575f80fd5b9250929050565b5f805f805f6101608688031215610b95575f80fd5b8535610ba081610af1565b9450610baf8760208801610b15565b9350610bbe8760c08801610b2b565b925061014086013567ffffffffffffffff811115610bda575f80fd5b610be688828901610b3b565b969995985093965092949392505050565b5f805f805f6101008688031215610c0c575f80fd5b8535610c1781610af1565b9450610c268760208801610b15565b935060c0860135610c3681610af1565b925060e086013567ffffffffffffffff811115610bda575f80fd5b5f60608284031215610b25575f80fd5b5f805f805f6101408688031215610c76575f80fd5b8535610c8181610af1565b9450610c908760208801610b15565b9350610c9f8760c08801610c51565b925061012086013567ffffffffffffffff811115610bda575f80fd5b5f60208284031215610ccb575f80fd5b5035919050565b5f805f805f805f6101a0888a031215610ce9575f80fd5b8735610cf481610af1565b9650610d038960208a01610b15565b9550610d128960c08a01610b2b565b94506101408801359350610160880135925061018088013567ffffffffffffffff811115610d3e575f80fd5b610d4a8a828b01610b3b565b989b979a50959850939692959293505050565b5f8060208385031215610d6e575f80fd5b823567ffffffffffffffff811115610d84575f80fd5b610d9085828601610b3b565b90969095509350505050565b5f81518084528060208401602086015e5f602082860101526020601f19601f83011685010191505092915050565b602081525f61085b6020830184610d9c565b8035600281900b8114610b10575f80fd5b5f805f805f806101208789031215610e03575f80fd5b8635610e0e81610af1565b9550610e1d8860208901610b15565b945060c0870135610e2d81610af1565b9350610e3b60e08801610ddc565b925061010087013567ffffffffffffffff811115610e57575f80fd5b610e6389828a01610b3b565b979a9699509497509295939492505050565b5f805f805f806101608789031215610e8b575f80fd5b8635610e9681610af1565b9550610ea58860208901610b15565b9450610eb48860c08901610c51565b9350610120870135925061014087013567ffffffffffffffff811115610e57575f80fd5b5f805f805f806101208789031215610eee575f80fd5b8635610ef981610af1565b9550610f088860208901610b15565b945060c0870135935060e0870135925061010087013567ffffffffffffffff811115610e57575f80fd5b8151151581526101c081016020830151610f50602084018215159052565b506040830151610f64604084018215159052565b506060830151610f78606084018215159052565b506080830151610f8c608084018215159052565b5060a0830151610fa060a084018215159052565b5060c0830151610fb460c084018215159052565b5060e0830151610fc860e084018215159052565b50610100830151610fde61010084018215159052565b50610120830151610ff461012084018215159052565b5061014083015161100a61014084018215159052565b5061016083015161102061016084018215159052565b5061018083015161103661018084018215159052565b506101a083015161104c6101a084018215159052565b5092915050565b803562ffffff81168114610b10575f80fd5b5f60a0828403128015611076575f80fd5b5060405160a0810167ffffffffffffffff811182821017156110a657634e487b7160e01b5f52604160045260245ffd5b6040526110b283610b05565b81526110c060208401610b05565b60208201526110d160408401611053565b60408201526110e260608401610ddc565b60608201526110f360808401610b05565b60808201529392505050565b634e487b7160e01b5f52601160045260245ffd5b5f60018201611124576111246110ff565b5060010190565b5f600160ff1b820161113f5761113f6110ff565b505f0390565b5f60208284031215611155575f80fd5b81518015158114611164575f80fd5b9392505050565b604081525f61117d6040830185610d9c565b905060018060a01b03831660208301529392505050565b818382375f910190815291905056fea26469706673582212201d67dd2b1a0d84e69d653a0a73b32be52a7f5fe4975ea24c0a260918c0949b9664736f6c634300081a0033","linkReferences":{}},"methodIdentifiers":{"afterAddLiquidity(address,(address,address,uint24,int24,address),(int24,int24,int256,bytes32),int256,int256,bytes)":"9f063efc","afterDonate(address,(address,address,uint24,int24,address),uint256,uint256,bytes)":"e1b4af69","afterInitialize(address,(address,address,uint24,int24,address),uint160,int24,bytes)":"a910f80f","afterRemoveLiquidity(address,(address,address,uint24,int24,address),(int24,int24,int256,bytes32),int256,int256,bytes)":"6c2bbe7e","afterSwap(address,(address,address,uint24,int24,address),(bool,int256,uint160),int256,bytes)":"b47b2fb1","afterSwapCount(bytes32)":"dacdbe77","backdoor()":"2665f77d","beforeAddLiquidity(address,(address,address,uint24,int24,address),(int24,int24,int256,bytes32),bytes)":"259982e5","beforeAddLiquidityCount(bytes32)":"c6939957","beforeDonate(address,(address,address,uint24,int24,address),uint256,uint256,bytes)":"b6a8b0fa","beforeInitialize(address,(address,address,uint24,int24,address),uint160,bytes)":"3440d820","beforeRemoveLiquidity(address,(address,address,uint24,int24,address),(int24,int24,int256,bytes32),bytes)":"21d0ee70","beforeRemoveLiquidityCount(bytes32)":"db6a9451","beforeSwap(address,(address,address,uint24,int24,address),(bool,int256,uint160),bytes)":"575e24b4","beforeSwapCount(bytes32)":"5c338d32","exploitable()":"8a020c3a","getHookPermissions()":"c4e833ce","poolManager()":"dc4c90d3","unlockCallback(bytes)":"91dd7346"},"id":132}