{"abi":[{"type":"constructor","inputs":[{"name":"_manager","type":"address","internalType":"contract IPoolManager"}],"stateMutability":"nonpayable"},{"type":"function","name":"afterAddLiquidity","inputs":[{"name":"","type":"address","internalType":"address"},{"name":"","type":"tuple","internalType":"struct PoolKey","components":[{"name":"currency0","type":"address","internalType":"Currency"},{"name":"currency1","type":"address","internalType":"Currency"},{"name":"fee","type":"uint24","internalType":"uint24"},{"name":"tickSpacing","type":"int24","internalType":"int24"},{"name":"hooks","type":"address","internalType":"contract IHooks"}]},{"name":"","type":"tuple","internalType":"struct IPoolManager.ModifyLiquidityParams","components":[{"name":"tickLower","type":"int24","internalType":"int24"},{"name":"tickUpper","type":"int24","internalType":"int24"},{"name":"liquidityDelta","type":"int256","internalType":"int256"},{"name":"salt","type":"bytes32","internalType":"bytes32"}]},{"name":"","type":"int256","internalType":"BalanceDelta"},{"name":"","type":"int256","internalType":"BalanceDelta"},{"name":"","type":"bytes","internalType":"bytes"}],"outputs":[{"name":"","type":"bytes4","internalType":"bytes4"},{"name":"","type":"int256","internalType":"BalanceDelta"}],"stateMutability":"nonpayable"},{"type":"function","name":"afterDonate","inputs":[{"name":"","type":"address","internalType":"address"},{"name":"","type":"tuple","internalType":"struct PoolKey","components":[{"name":"currency0","type":"address","internalType":"Currency"},{"name":"currency1","type":"address","internalType":"Currency"},{"name":"fee","type":"uint24","internalType":"uint24"},{"name":"tickSpacing","type":"int24","internalType":"int24"},{"name":"hooks","type":"address","internalType":"contract IHooks"}]},{"name":"","type":"uint256","internalType":"uint256"},{"name":"","type":"uint256","internalType":"uint256"},{"name":"","type":"bytes","internalType":"bytes"}],"outputs":[{"name":"","type":"bytes4","internalType":"bytes4"}],"stateMutability":"nonpayable"},{"type":"function","name":"afterInitialize","inputs":[{"name":"","type":"address","internalType":"address"},{"name":"","type":"tuple","internalType":"struct PoolKey","components":[{"name":"currency0","type":"address","internalType":"Currency"},{"name":"currency1","type":"address","internalType":"Currency"},{"name":"fee","type":"uint24","internalType":"uint24"},{"name":"tickSpacing","type":"int24","internalType":"int24"},{"name":"hooks","type":"address","internalType":"contract IHooks"}]},{"name":"","type":"uint160","internalType":"uint160"},{"name":"","type":"int24","internalType":"int24"},{"name":"","type":"bytes","internalType":"bytes"}],"outputs":[{"name":"","type":"bytes4","internalType":"bytes4"}],"stateMutability":"nonpayable"},{"type":"function","name":"afterRemoveLiquidity","inputs":[{"name":"","type":"address","internalType":"address"},{"name":"","type":"tuple","internalType":"struct PoolKey","components":[{"name":"currency0","type":"address","internalType":"Currency"},{"name":"currency1","type":"address","internalType":"Currency"},{"name":"fee","type":"uint24","internalType":"uint24"},{"name":"tickSpacing","type":"int24","internalType":"int24"},{"name":"hooks","type":"address","internalType":"contract IHooks"}]},{"name":"","type":"tuple","internalType":"struct IPoolManager.ModifyLiquidityParams","components":[{"name":"tickLower","type":"int24","internalType":"int24"},{"name":"tickUpper","type":"int24","internalType":"int24"},{"name":"liquidityDelta","type":"int256","internalType":"int256"},{"name":"salt","type":"bytes32","internalType":"bytes32"}]},{"name":"","type":"int256","internalType":"BalanceDelta"},{"name":"","type":"int256","internalType":"BalanceDelta"},{"name":"","type":"bytes","internalType":"bytes"}],"outputs":[{"name":"","type":"bytes4","internalType":"bytes4"},{"name":"","type":"int256","internalType":"BalanceDelta"}],"stateMutability":"nonpayable"},{"type":"function","name":"afterSwap","inputs":[{"name":"","type":"address","internalType":"address"},{"name":"","type":"tuple","internalType":"struct PoolKey","components":[{"name":"currency0","type":"address","internalType":"Currency"},{"name":"currency1","type":"address","internalType":"Currency"},{"name":"fee","type":"uint24","internalType":"uint24"},{"name":"tickSpacing","type":"int24","internalType":"int24"},{"name":"hooks","type":"address","internalType":"contract IHooks"}]},{"name":"","type":"tuple","internalType":"struct IPoolManager.SwapParams","components":[{"name":"zeroForOne","type":"bool","internalType":"bool"},{"name":"amountSpecified","type":"int256","internalType":"int256"},{"name":"sqrtPriceLimitX96","type":"uint160","internalType":"uint160"}]},{"name":"","type":"int256","internalType":"BalanceDelta"},{"name":"","type":"bytes","internalType":"bytes"}],"outputs":[{"name":"","type":"bytes4","internalType":"bytes4"},{"name":"","type":"int128","internalType":"int128"}],"stateMutability":"nonpayable"},{"type":"function","name":"beforeAddLiquidity","inputs":[{"name":"","type":"address","internalType":"address"},{"name":"","type":"tuple","internalType":"struct PoolKey","components":[{"name":"currency0","type":"address","internalType":"Currency"},{"name":"currency1","type":"address","internalType":"Currency"},{"name":"fee","type":"uint24","internalType":"uint24"},{"name":"tickSpacing","type":"int24","internalType":"int24"},{"name":"hooks","type":"address","internalType":"contract IHooks"}]},{"name":"","type":"tuple","internalType":"struct IPoolManager.ModifyLiquidityParams","components":[{"name":"tickLower","type":"int24","internalType":"int24"},{"name":"tickUpper","type":"int24","internalType":"int24"},{"name":"liquidityDelta","type":"int256","internalType":"int256"},{"name":"salt","type":"bytes32","internalType":"bytes32"}]},{"name":"","type":"bytes","internalType":"bytes"}],"outputs":[{"name":"","type":"bytes4","internalType":"bytes4"}],"stateMutability":"nonpayable"},{"type":"function","name":"beforeDonate","inputs":[{"name":"","type":"address","internalType":"address"},{"name":"","type":"tuple","internalType":"struct PoolKey","components":[{"name":"currency0","type":"address","internalType":"Currency"},{"name":"currency1","type":"address","internalType":"Currency"},{"name":"fee","type":"uint24","internalType":"uint24"},{"name":"tickSpacing","type":"int24","internalType":"int24"},{"name":"hooks","type":"address","internalType":"contract IHooks"}]},{"name":"","type":"uint256","internalType":"uint256"},{"name":"","type":"uint256","internalType":"uint256"},{"name":"","type":"bytes","internalType":"bytes"}],"outputs":[{"name":"","type":"bytes4","internalType":"bytes4"}],"stateMutability":"nonpayable"},{"type":"function","name":"beforeInitialize","inputs":[{"name":"","type":"address","internalType":"address"},{"name":"","type":"tuple","internalType":"struct PoolKey","components":[{"name":"currency0","type":"address","internalType":"Currency"},{"name":"currency1","type":"address","internalType":"Currency"},{"name":"fee","type":"uint24","internalType":"uint24"},{"name":"tickSpacing","type":"int24","internalType":"int24"},{"name":"hooks","type":"address","internalType":"contract IHooks"}]},{"name":"","type":"uint160","internalType":"uint160"},{"name":"","type":"bytes","internalType":"bytes"}],"outputs":[{"name":"","type":"bytes4","internalType":"bytes4"}],"stateMutability":"nonpayable"},{"type":"function","name":"beforeRemoveLiquidity","inputs":[{"name":"","type":"address","internalType":"address"},{"name":"","type":"tuple","internalType":"struct PoolKey","components":[{"name":"currency0","type":"address","internalType":"Currency"},{"name":"currency1","type":"address","internalType":"Currency"},{"name":"fee","type":"uint24","internalType":"uint24"},{"name":"tickSpacing","type":"int24","internalType":"int24"},{"name":"hooks","type":"address","internalType":"contract IHooks"}]},{"name":"","type":"tuple","internalType":"struct IPoolManager.ModifyLiquidityParams","components":[{"name":"tickLower","type":"int24","internalType":"int24"},{"name":"tickUpper","type":"int24","internalType":"int24"},{"name":"liquidityDelta","type":"int256","internalType":"int256"},{"name":"salt","type":"bytes32","internalType":"bytes32"}]},{"name":"","type":"bytes","internalType":"bytes"}],"outputs":[{"name":"","type":"bytes4","internalType":"bytes4"}],"stateMutability":"nonpayable"},{"type":"function","name":"beforeSwap","inputs":[{"name":"","type":"address","internalType":"address"},{"name":"key","type":"tuple","internalType":"struct PoolKey","components":[{"name":"currency0","type":"address","internalType":"Currency"},{"name":"currency1","type":"address","internalType":"Currency"},{"name":"fee","type":"uint24","internalType":"uint24"},{"name":"tickSpacing","type":"int24","internalType":"int24"},{"name":"hooks","type":"address","internalType":"contract IHooks"}]},{"name":"params","type":"tuple","internalType":"struct IPoolManager.SwapParams","components":[{"name":"zeroForOne","type":"bool","internalType":"bool"},{"name":"amountSpecified","type":"int256","internalType":"int256"},{"name":"sqrtPriceLimitX96","type":"uint160","internalType":"uint160"}]},{"name":"","type":"bytes","internalType":"bytes"}],"outputs":[{"name":"","type":"bytes4","internalType":"bytes4"},{"name":"","type":"int256","internalType":"BeforeSwapDelta"},{"name":"","type":"uint24","internalType":"uint24"}],"stateMutability":"nonpayable"},{"type":"error","name":"HookNotImplemented","inputs":[]}],"bytecode":{"object":"0x60a0604052348015600e575f80fd5b50604051610b6b380380610b6b833981016040819052602b91603b565b6001600160a01b03166080526066565b5f60208284031215604a575f80fd5b81516001600160a01b0381168114605f575f80fd5b9392505050565b608051610adf61008c5f395f81816101c40152818161022e01526102970152610adf5ff3fe608060405234801561000f575f80fd5b506004361061009b575f3560e01c80639f063efc116100635780639f063efc1461011c578063a910f80f1461014f578063b47b2fb11461015d578063b6a8b0fa1461018e578063e1b4af691461018e575f80fd5b806321d0ee701461009f578063259982e51461009f5780633440d820146100d0578063575e24b4146100de5780636c2bbe7e1461011c575b5f80fd5b6100b26100ad3660046106f4565b61019c565b6040516001600160e01b031990911681526020015b60405180910390f35b6100b26100ad36600461076b565b6100f16100ec3660046107d5565b6101b6565b604080516001600160e01b03199094168452602084019290925262ffffff16908201526060016100c7565b61012f61012a36600461082f565b610309565b604080516001600160e01b031990931683526020830191909152016100c7565b6100b26100ad3660046108ba565b61016b61012a36600461094a565b604080516001600160e01b03199093168352600f9190910b6020830152016100c7565b6100b26100ad3660046109ad565b5f604051630a85dc2960e01b815260040160405180910390fd5b5f8080336001600160a01b037f000000000000000000000000000000000000000000000000000000000000000016146101ed575f80fd5b5f805f6101fa8a8a610324565b604051630b0d9c0960e01b81526001600160a01b0384811660048301523060248301526044820183905293965091945092507f000000000000000000000000000000000000000000000000000000000000000090911690630b0d9c09906064015f604051808303815f87803b158015610271575f80fd5b505af1158015610283573d5f803e3d5ffd5b506102be925050506001600160a01b0383167f000000000000000000000000000000000000000000000000000000000000000030845f6103a7565b5f6102ed6102cf60208c0135610a07565b60801b60208c01356fffffffffffffffffffffffffffffffff161790565b6315d7892d60e21b9d909c505f9b509950505050505050505050565b5f80604051630a85dc2960e01b815260040160405180910390fd5b5f80806103346020850185610a3a565b61035a576103486040860160208701610a5c565b6103556020870187610a5c565b610377565b6103676020860186610a5c565b6103776040870160208801610a5c565b90935091505f60208501351261039157836020013561039e565b61039e6020850135610a07565b90509250925092565b801561043b57836001600160a01b031663f5298aca846103d6886001600160a01b03166001600160a01b031690565b6040516001600160e01b031960e085901b1681526001600160a01b0390921660048301526024820152604481018590526064015f604051808303815f87803b158015610420575f80fd5b505af1158015610432573d5f803e3d5ffd5b5050505061066b565b6001600160a01b0385166104b257836001600160a01b03166311da60b4836040518263ffffffff1660e01b815260040160206040518083038185885af1158015610487573d5f803e3d5ffd5b50505050506040513d601f19601f820116820180604052508101906104ac9190610a77565b5061066b565b604051632961046560e21b81526001600160a01b03868116600483015285169063a5841194906024015f604051808303815f87803b1580156104f2575f80fd5b505af1158015610504573d5f803e3d5ffd5b505050506001600160a01b0383163014610596576040516323b872dd60e01b81526001600160a01b0384811660048301528581166024830152604482018490528616906323b872dd906064016020604051808303815f875af115801561056c573d5f803e3d5ffd5b505050506040513d601f19601f820116820180604052508101906105909190610a8e565b50610608565b60405163a9059cbb60e01b81526001600160a01b0385811660048301526024820184905286169063a9059cbb906044016020604051808303815f875af11580156105e2573d5f803e3d5ffd5b505050506040513d601f19601f820116820180604052508101906106069190610a8e565b505b836001600160a01b03166311da60b46040518163ffffffff1660e01b81526004016020604051808303815f875af1158015610645573d5f803e3d5ffd5b505050506040513d601f19601f820116820180604052508101906106699190610a77565b505b5050505050565b6001600160a01b0381168114610686575f80fd5b50565b5f60a08284031215610699575f80fd5b50919050565b5f60808284031215610699575f80fd5b5f8083601f8401126106bf575f80fd5b50813567ffffffffffffffff8111156106d6575f80fd5b6020830191508360208285010111156106ed575f80fd5b9250929050565b5f805f805f6101608688031215610709575f80fd5b853561071481610672565b94506107238760208801610689565b93506107328760c0880161069f565b925061014086013567ffffffffffffffff81111561074e575f80fd5b61075a888289016106af565b969995985093965092949392505050565b5f805f805f6101008688031215610780575f80fd5b853561078b81610672565b945061079a8760208801610689565b935060c08601356107aa81610672565b925060e086013567ffffffffffffffff81111561074e575f80fd5b5f60608284031215610699575f80fd5b5f805f805f61014086880312156107ea575f80fd5b85356107f581610672565b94506108048760208801610689565b93506108138760c088016107c5565b925061012086013567ffffffffffffffff81111561074e575f80fd5b5f805f805f805f6101a0888a031215610846575f80fd5b873561085181610672565b96506108608960208a01610689565b955061086f8960c08a0161069f565b94506101408801359350610160880135925061018088013567ffffffffffffffff81111561089b575f80fd5b6108a78a828b016106af565b989b979a50959850939692959293505050565b5f805f805f8061012087890312156108d0575f80fd5b86356108db81610672565b95506108ea8860208901610689565b945060c08701356108fa81610672565b935060e0870135600281900b8114610910575f80fd5b925061010087013567ffffffffffffffff81111561092c575f80fd5b61093889828a016106af565b979a9699509497509295939492505050565b5f805f805f806101608789031215610960575f80fd5b863561096b81610672565b955061097a8860208901610689565b94506109898860c089016107c5565b9350610120870135925061014087013567ffffffffffffffff81111561092c575f80fd5b5f805f805f8061012087890312156109c3575f80fd5b86356109ce81610672565b95506109dd8860208901610689565b945060c0870135935060e0870135925061010087013567ffffffffffffffff81111561092c575f80fd5b5f600160ff1b8201610a2757634e487b7160e01b5f52601160045260245ffd5b505f0390565b8015158114610686575f80fd5b5f60208284031215610a4a575f80fd5b8135610a5581610a2d565b9392505050565b5f60208284031215610a6c575f80fd5b8135610a5581610672565b5f60208284031215610a87575f80fd5b5051919050565b5f60208284031215610a9e575f80fd5b8151610a5581610a2d56fea2646970667358221220e9ca7b5bf7d0009f8c7ef06c939de8f18c20abd0516faf9752d4d55cbd1d350564736f6c634300081a0033","linkReferences":{}},"methodIdentifiers":{"afterAddLiquidity(address,(address,address,uint24,int24,address),(int24,int24,int256,bytes32),int256,int256,bytes)":"9f063efc","afterDonate(address,(address,address,uint24,int24,address),uint256,uint256,bytes)":"e1b4af69","afterInitialize(address,(address,address,uint24,int24,address),uint160,int24,bytes)":"a910f80f","afterRemoveLiquidity(address,(address,address,uint24,int24,address),(int24,int24,int256,bytes32),int256,int256,bytes)":"6c2bbe7e","afterSwap(address,(address,address,uint24,int24,address),(bool,int256,uint160),int256,bytes)":"b47b2fb1","beforeAddLiquidity(address,(address,address,uint24,int24,address),(int24,int24,int256,bytes32),bytes)":"259982e5","beforeDonate(address,(address,address,uint24,int24,address),uint256,uint256,bytes)":"b6a8b0fa","beforeInitialize(address,(address,address,uint24,int24,address),uint160,bytes)":"3440d820","beforeRemoveLiquidity(address,(address,address,uint24,int24,address),(int24,int24,int256,bytes32),bytes)":"21d0ee70","beforeSwap(address,(address,address,uint24,int24,address),(bool,int256,uint160),bytes)":"575e24b4"},"id":130}